{
  "contractName": "Certificate",
  "abi": [
    {
      "anonymous": false,
      "inputs": [
        {
          "indexed": true,
          "internalType": "address",
          "name": "owner",
          "type": "address"
        },
        {
          "indexed": false,
          "internalType": "string",
          "name": "certificateHash",
          "type": "string"
        }
      ],
      "name": "CertificateUploaded",
      "type": "event"
    },
    {
      "anonymous": false,
      "inputs": [
        {
          "indexed": true,
          "internalType": "address",
          "name": "owner",
          "type": "address"
        }
      ],
      "name": "CertificateValidated",
      "type": "event"
    },
    {
      "inputs": [
        {
          "internalType": "address",
          "name": "",
          "type": "address"
        }
      ],
      "name": "certificates",
      "outputs": [
        {
          "internalType": "address",
          "name": "owner",
          "type": "address"
        },
        {
          "internalType": "string",
          "name": "certificateHash",
          "type": "string"
        },
        {
          "internalType": "bool",
          "name": "validated",
          "type": "bool"
        }
      ],
      "stateMutability": "view",
      "type": "function",
      "constant": true
    },
    {
      "inputs": [
        {
          "internalType": "string",
          "name": "_certificateHash",
          "type": "string"
        }
      ],
      "name": "uploadCertificate",
      "outputs": [],
      "stateMutability": "nonpayable",
      "type": "function"
    },
    {
      "inputs": [
        {
          "internalType": "address",
          "name": "_owner",
          "type": "address"
        }
      ],
      "name": "validateCertificate",
      "outputs": [],
      "stateMutability": "nonpayable",
      "type": "function"
    }
  ],
  "bytecode": "0x608060405234801561001057600080fd5b50610b98806100206000396000f3fe608060405234801561001057600080fd5b50600436106100405760003560e01c806216e52614610045578063849cc31014610077578063cf1a7eee14610093575b600080fd5b61005f600480360381019061005a919061070c565b6100af565b60405161006e939291906108cd565b60405180910390f35b610091600480360381019061008c9190610735565b61018e565b005b6100ad60048036038101906100a8919061070c565b6103ec565b005b60006020528060005260406000206000915090508060000160009054906101000a900473ffffffffffffffffffffffffffffffffffffffff16908060010180546100f890610aaa565b80601f016020809104026020016040519081016040528092919081815260200182805461012490610aaa565b80156101715780601f1061014657610100808354040283529160200191610171565b820191906000526020600020905b81548152906001019060200180831161015457829003601f168201915b5050505050908060020160009054906101000a900460ff16905083565b60008151116101d2576040517f08c379a00000000000000000000000000000000000000000000000000000000081526004016101c99061098d565b60405180910390fd5b600073ffffffffffffffffffffffffffffffffffffffff166000803373ffffffffffffffffffffffffffffffffffffffff1673ffffffffffffffffffffffffffffffffffffffff16815260200190815260200160002060000160009054906101000a900473ffffffffffffffffffffffffffffffffffffffff1673ffffffffffffffffffffffffffffffffffffffff16146102a2576040517f08c379a00000000000000000000000000000000000000000000000000000000081526004016102999061096d565b60405180910390fd5b60405180606001604052803373ffffffffffffffffffffffffffffffffffffffff168152602001828152602001600015158152506000803373ffffffffffffffffffffffffffffffffffffffff1673ffffffffffffffffffffffffffffffffffffffff16815260200190815260200160002060008201518160000160006101000a81548173ffffffffffffffffffffffffffffffffffffffff021916908373ffffffffffffffffffffffffffffffffffffffff16021790555060208201518160010190805190602001906103779291906105ec565b5060408201518160020160006101000a81548160ff0219169083151502179055509050503373ffffffffffffffffffffffffffffffffffffffff167f39f06bf218f917b73c97d18d50263951aa00e26d57e089e1e029bb104a81840b826040516103e1919061090b565b60405180910390a250565b600073ffffffffffffffffffffffffffffffffffffffff166000808373ffffffffffffffffffffffffffffffffffffffff1673ffffffffffffffffffffffffffffffffffffffff16815260200190815260200160002060000160009054906101000a900473ffffffffffffffffffffffffffffffffffffffff1673ffffffffffffffffffffffffffffffffffffffff1614156104bd576040517f08c379a00000000000000000000000000000000000000000000000000000000081526004016104b49061094d565b60405180910390fd5b6000808273ffffffffffffffffffffffffffffffffffffffff1673ffffffffffffffffffffffffffffffffffffffff16815260200190815260200160002060020160009054906101000a900460ff161561054c576040517f08c379a00000000000000000000000000000000000000000000000000000000081526004016105439061092d565b60405180910390fd5b60016000808373ffffffffffffffffffffffffffffffffffffffff1673ffffffffffffffffffffffffffffffffffffffff16815260200190815260200160002060020160006101000a81548160ff0219169083151502179055508073ffffffffffffffffffffffffffffffffffffffff167fcae1adbe9dd333970068e197c9267048f5c3d789fd9709706b38282edbdd578860405160405180910390a250565b8280546105f890610aaa565b90600052602060002090601f01602090048101928261061a5760008555610661565b82601f1061063357805160ff1916838001178555610661565b82800160010185558215610661579182015b82811115610660578251825591602001919060010190610645565b5b50905061066e9190610672565b5090565b5b8082111561068b576000816000905550600101610673565b5090565b60006106a261069d846109de565b6109ad565b9050828152602081018484840111156106ba57600080fd5b6106c5848285610a68565b509392505050565b6000813590506106dc81610b4b565b92915050565b600082601f8301126106f357600080fd5b813561070384826020860161068f565b91505092915050565b60006020828403121561071e57600080fd5b600061072c848285016106cd565b91505092915050565b60006020828403121561074757600080fd5b600082013567ffffffffffffffff81111561076157600080fd5b61076d848285016106e2565b91505092915050565b61077f81610a2a565b82525050565b61078e81610a3c565b82525050565b600061079f82610a0e565b6107a98185610a19565b93506107b9818560208601610a77565b6107c281610b3a565b840191505092915050565b60006107da601d83610a19565b91507f436572746966696361746520616c72656164792076616c6964617465640000006000830152602082019050919050565b600061081a601583610a19565b91507f4365727469666963617465206e6f7420666f756e6400000000000000000000006000830152602082019050919050565b600061085a601c83610a19565b91507f436572746966696361746520616c72656164792075706c6f61646564000000006000830152602082019050919050565b600061089a602083610a19565b91507f436572746966696361746520686173682063616e6e6f7420626520656d7074796000830152602082019050919050565b60006060820190506108e26000830186610776565b81810360208301526108f48185610794565b90506109036040830184610785565b949350505050565b600060208201905081810360008301526109258184610794565b905092915050565b60006020820190508181036000830152610946816107cd565b9050919050565b600060208201905081810360008301526109668161080d565b9050919050565b600060208201905081810360008301526109868161084d565b9050919050565b600060208201905081810360008301526109a68161088d565b9050919050565b6000604051905081810181811067ffffffffffffffff821117156109d4576109d3610b0b565b5b8060405250919050565b600067ffffffffffffffff8211156109f9576109f8610b0b565b5b601f19601f8301169050602081019050919050565b600081519050919050565b600082825260208201905092915050565b6000610a3582610a48565b9050919050565b60008115159050919050565b600073ffffffffffffffffffffffffffffffffffffffff82169050919050565b82818337600083830152505050565b60005b83811015610a95578082015181840152602081019050610a7a565b83811115610aa4576000848401525b50505050565b60006002820490506001821680610ac257607f821691505b60208210811415610ad657610ad5610adc565b5b50919050565b7f4e487b7100000000000000000000000000000000000000000000000000000000600052602260045260246000fd5b7f4e487b7100000000000000000000000000000000000000000000000000000000600052604160045260246000fd5b6000601f19601f8301169050919050565b610b5481610a2a565b8114610b5f57600080fd5b5056fea2646970667358221220ba7c3bbfa5ecb01fc21c098b1251509d02e056b95a9948f75f1b7296c953debf64736f6c63430008000033",
  "immutableReferences": {},
  "source": "// SPDX-License-Identifier: MIT \r\npragma solidity ^0.8.0;\r\n\r\ncontract Certificate {\r\n    struct CertificateData {\r\n        address owner;\r\n        string certificateHash;\r\n        bool validated;\r\n    }\r\n\r\n    mapping(address => CertificateData) public certificates;\r\n\r\n    event CertificateUploaded(address indexed owner, string certificateHash);\r\n    event CertificateValidated(address indexed owner);\r\n\r\n    function uploadCertificate(string memory _certificateHash) external {\r\n        require(bytes(_certificateHash).length > 0, \"Certificate hash cannot be empty\");\r\n        require(certificates[msg.sender].owner == address(0), \"Certificate already uploaded\");\r\n\r\n        certificates[msg.sender] = CertificateData(msg.sender, _certificateHash, false);\r\n\r\n        emit CertificateUploaded(msg.sender, _certificateHash);\r\n    }\r\n\r\n    function validateCertificate(address _owner) external {\r\n        require(certificates[_owner].owner != address(0), \"Certificate not found\");\r\n        require(!certificates[_owner].validated, \"Certificate already validated\");\r\n\r\n        certificates[_owner].validated = true;\r\n\r\n        emit CertificateValidated(_owner);\r\n    }\r\n}",
  "sourcePath": "c:\\Users\\berke\\OneDrive\\Masast\\bmcs\\contracts\\Certificate.sol",
  "compiler": {
    "name": "solc",
    "version": "0.8.0+commit.c7dfd78e.Emscripten.clang"
  },
  "schemaVersion": "3.4.14",
  "updatedAt": "2023-06-08T21:07:48.452Z",
  "networkType": "ethereum",
  "devdoc": {
    "kind": "dev",
    "methods": {},
    "version": 1
  },
  "userdoc": {
    "kind": "user",
    "methods": {},
    "version": 1
  }
}