{
  "contractName": "MovieRatingSystem",
  "abi": [
    {
      "inputs": [
        {
          "internalType": "address",
          "name": "_tokenContract",
          "type": "address"
        },
        {
          "internalType": "address",
          "name": "_certificateContract",
          "type": "address"
        }
      ],
      "stateMutability": "nonpayable",
      "type": "constructor"
    },
    {
      "anonymous": false,
      "inputs": [
        {
          "indexed": true,
          "internalType": "address",
          "name": "contentCreator",
          "type": "address"
        },
        {
          "indexed": false,
          "internalType": "string",
          "name": "movieName",
          "type": "string"
        }
      ],
      "name": "MovieAdded",
      "type": "event"
    },
    {
      "anonymous": false,
      "inputs": [
        {
          "indexed": true,
          "internalType": "address",
          "name": "user",
          "type": "address"
        },
        {
          "indexed": true,
          "internalType": "address",
          "name": "contentCreator",
          "type": "address"
        },
        {
          "indexed": false,
          "internalType": "string",
          "name": "movieName",
          "type": "string"
        },
        {
          "indexed": false,
          "internalType": "uint256",
          "name": "rating",
          "type": "uint256"
        }
      ],
      "name": "MovieRated",
      "type": "event"
    },
    {
      "anonymous": false,
      "inputs": [
        {
          "indexed": true,
          "internalType": "address",
          "name": "user",
          "type": "address"
        },
        {
          "indexed": true,
          "internalType": "address",
          "name": "contentCreator",
          "type": "address"
        },
        {
          "indexed": false,
          "internalType": "string",
          "name": "movieName",
          "type": "string"
        },
        {
          "indexed": false,
          "internalType": "string",
          "name": "review",
          "type": "string"
        }
      ],
      "name": "MovieReviewed",
      "type": "event"
    },
    {
      "anonymous": false,
      "inputs": [
        {
          "indexed": true,
          "internalType": "address",
          "name": "reviewer",
          "type": "address"
        },
        {
          "indexed": true,
          "internalType": "address",
          "name": "contentCreator",
          "type": "address"
        }
      ],
      "name": "ReviewLiked",
      "type": "event"
    },
    {
      "anonymous": false,
      "inputs": [
        {
          "indexed": true,
          "internalType": "address",
          "name": "userAddress",
          "type": "address"
        },
        {
          "indexed": false,
          "internalType": "bool",
          "name": "isContentCreator",
          "type": "bool"
        }
      ],
      "name": "UserSignUp",
      "type": "event"
    },
    {
      "anonymous": false,
      "inputs": [
        {
          "indexed": true,
          "internalType": "address",
          "name": "validator",
          "type": "address"
        }
      ],
      "name": "ValidatorSignUp",
      "type": "event"
    },
    {
      "inputs": [],
      "name": "certificateContract",
      "outputs": [
        {
          "internalType": "contract Certificate",
          "name": "",
          "type": "address"
        }
      ],
      "stateMutability": "view",
      "type": "function",
      "constant": true
    },
    {
      "inputs": [
        {
          "internalType": "address",
          "name": "",
          "type": "address"
        },
        {
          "internalType": "address",
          "name": "",
          "type": "address"
        }
      ],
      "name": "likedReviews",
      "outputs": [
        {
          "internalType": "bool",
          "name": "",
          "type": "bool"
        }
      ],
      "stateMutability": "view",
      "type": "function",
      "constant": true
    },
    {
      "inputs": [
        {
          "internalType": "address",
          "name": "",
          "type": "address"
        },
        {
          "internalType": "uint256",
          "name": "",
          "type": "uint256"
        }
      ],
      "name": "moviesAddedByUser",
      "outputs": [
        {
          "internalType": "address",
          "name": "contentCreator",
          "type": "address"
        },
        {
          "internalType": "string",
          "name": "movieName",
          "type": "string"
        },
        {
          "internalType": "uint256",
          "name": "totalRating",
          "type": "uint256"
        },
        {
          "internalType": "uint256",
          "name": "ratingCount",
          "type": "uint256"
        },
        {
          "internalType": "uint256",
          "name": "avgRating",
          "type": "uint256"
        }
      ],
      "stateMutability": "view",
      "type": "function",
      "constant": true
    },
    {
      "inputs": [
        {
          "internalType": "address",
          "name": "",
          "type": "address"
        },
        {
          "internalType": "uint256",
          "name": "",
          "type": "uint256"
        },
        {
          "internalType": "uint256",
          "name": "",
          "type": "uint256"
        }
      ],
      "name": "moviesRatedByUser",
      "outputs": [
        {
          "internalType": "address",
          "name": "user",
          "type": "address"
        },
        {
          "internalType": "uint256",
          "name": "rating",
          "type": "uint256"
        }
      ],
      "stateMutability": "view",
      "type": "function",
      "constant": true
    },
    {
      "inputs": [],
      "name": "tokenContract",
      "outputs": [
        {
          "internalType": "contract MovieRatingToken",
          "name": "",
          "type": "address"
        }
      ],
      "stateMutability": "view",
      "type": "function",
      "constant": true
    },
    {
      "inputs": [
        {
          "internalType": "uint256",
          "name": "",
          "type": "uint256"
        }
      ],
      "name": "userAddresses",
      "outputs": [
        {
          "internalType": "address",
          "name": "",
          "type": "address"
        }
      ],
      "stateMutability": "view",
      "type": "function",
      "constant": true
    },
    {
      "inputs": [],
      "name": "userCount",
      "outputs": [
        {
          "internalType": "uint256",
          "name": "",
          "type": "uint256"
        }
      ],
      "stateMutability": "view",
      "type": "function",
      "constant": true
    },
    {
      "inputs": [
        {
          "internalType": "address",
          "name": "",
          "type": "address"
        }
      ],
      "name": "users",
      "outputs": [
        {
          "internalType": "address",
          "name": "userAddress",
          "type": "address"
        },
        {
          "internalType": "bool",
          "name": "isContentCreator",
          "type": "bool"
        },
        {
          "internalType": "uint256",
          "name": "tokenBalance",
          "type": "uint256"
        },
        {
          "internalType": "uint256",
          "name": "rep",
          "type": "uint256"
        },
        {
          "internalType": "bool",
          "name": "validated",
          "type": "bool"
        }
      ],
      "stateMutability": "view",
      "type": "function",
      "constant": true
    },
    {
      "inputs": [
        {
          "internalType": "address",
          "name": "",
          "type": "address"
        }
      ],
      "name": "validators",
      "outputs": [
        {
          "internalType": "address",
          "name": "validatorAddress",
          "type": "address"
        },
        {
          "internalType": "bool",
          "name": "registered",
          "type": "bool"
        }
      ],
      "stateMutability": "view",
      "type": "function",
      "constant": true
    },
    {
      "inputs": [
        {
          "internalType": "bool",
          "name": "_isContentCreator",
          "type": "bool"
        }
      ],
      "name": "signUp",
      "outputs": [],
      "stateMutability": "nonpayable",
      "type": "function"
    },
    {
      "inputs": [],
      "name": "replenishTokens",
      "outputs": [],
      "stateMutability": "nonpayable",
      "type": "function"
    },
    {
      "inputs": [],
      "name": "getAllUserAddresses",
      "outputs": [
        {
          "internalType": "address[]",
          "name": "",
          "type": "address[]"
        }
      ],
      "stateMutability": "view",
      "type": "function",
      "constant": true
    },
    {
      "inputs": [
        {
          "internalType": "string",
          "name": "_movieName",
          "type": "string"
        }
      ],
      "name": "addMovie",
      "outputs": [],
      "stateMutability": "nonpayable",
      "type": "function"
    },
    {
      "inputs": [
        {
          "internalType": "address",
          "name": "_contentCreator",
          "type": "address"
        },
        {
          "internalType": "string",
          "name": "_movieName",
          "type": "string"
        },
        {
          "internalType": "string",
          "name": "_review",
          "type": "string"
        }
      ],
      "name": "reviewMovie",
      "outputs": [],
      "stateMutability": "nonpayable",
      "type": "function"
    },
    {
      "inputs": [
        {
          "internalType": "address",
          "name": "_contentCreator",
          "type": "address"
        },
        {
          "internalType": "string",
          "name": "_movieName",
          "type": "string"
        },
        {
          "internalType": "uint256",
          "name": "_rating",
          "type": "uint256"
        }
      ],
      "name": "rateMovie",
      "outputs": [],
      "stateMutability": "nonpayable",
      "type": "function"
    },
    {
      "inputs": [
        {
          "internalType": "address",
          "name": "_contentCreator",
          "type": "address"
        },
        {
          "internalType": "address",
          "name": "_reviewer",
          "type": "address"
        }
      ],
      "name": "likeReview",
      "outputs": [],
      "stateMutability": "nonpayable",
      "type": "function"
    },
    {
      "inputs": [
        {
          "internalType": "string",
          "name": "_certificateHash",
          "type": "string"
        }
      ],
      "name": "uploadCertificate",
      "outputs": [],
      "stateMutability": "nonpayable",
      "type": "function"
    },
    {
      "inputs": [
        {
          "internalType": "address",
          "name": "_owner",
          "type": "address"
        },
        {
          "internalType": "bool",
          "name": "_status",
          "type": "bool"
        }
      ],
      "name": "validateCertificate",
      "outputs": [],
      "stateMutability": "nonpayable",
      "type": "function"
    },
    {
      "inputs": [],
      "name": "validatorSignUp",
      "outputs": [],
      "stateMutability": "nonpayable",
      "type": "function"
    }
  ],
  "bytecode": "0x60806040523480156200001157600080fd5b506040516200356f3803806200356f8339818101604052810190620000379190620000e0565b81600260006101000a81548173ffffffffffffffffffffffffffffffffffffffff021916908373ffffffffffffffffffffffffffffffffffffffff16021790555080600660006101000a81548173ffffffffffffffffffffffffffffffffffffffff021916908373ffffffffffffffffffffffffffffffffffffffff160217905550600060078190555050506200016f565b600081519050620000da8162000155565b92915050565b60008060408385031215620000f457600080fd5b60006200010485828601620000c9565b92505060206200011785828601620000c9565b9150509250929050565b60006200012e8262000135565b9050919050565b600073ffffffffffffffffffffffffffffffffffffffff82169050919050565b620001608162000121565b81146200016c57600080fd5b50565b6133f0806200017f6000396000f3fe608060405234801561001057600080fd5b50600436106101215760003560e01c8063849cc310116100ad578063c6cc921b11610071578063c6cc921b146102d6578063d2289ca7146102f2578063e7ae35201461030e578063fa52c7d81461033f578063fbb568131461037057610121565b8063849cc3101461021a578063a85c17e214610236578063a87430ba14610252578063bde823e614610286578063c664bdcb146102ba57610121565b806355a373d6116100f457806355a373d61461019c5780636f3b4e08146101ba57806372511e47146101c4578063779c7ac3146101e057806378ce6ec5146101fe57610121565b806307973ccf1461012657806317a2f56b146101445780632f3300231461014e578063502c9bd51461016c575b600080fd5b61012e6103a0565b60405161013b9190612faf565b60405180910390f35b61014c6103a6565b005b6101566106f2565b6040516101639190612cd3565b60405180910390f35b6101866004803603810190610181919061253d565b610780565b6040516101939190612b82565b60405180910390f35b6101a46107bf565b6040516101b19190612d2b565b60405180910390f35b6101c26107e5565b005b6101de60048036038101906101d991906124fc565b610b19565b005b6101e8610e27565b6040516101f59190612d10565b60405180910390f35b610218600480360381019061021391906122fd565b610e4d565b005b610234600480360381019061022f91906124fc565b610f7a565b005b610250600480360381019061024b91906124aa565b61100a565b005b61026c60048036038101906102679190612298565b611577565b60405161027d959493929190612bfd565b60405180910390f35b6102a0600480360381019061029b919061241f565b6115e7565b6040516102b1959493929190612c50565b60405180910390f35b6102d460048036038101906102cf9190612339565b6116e2565b005b6102f060048036038101906102eb91906122c1565b61188e565b005b61030c600480360381019061030791906123b8565b611c60565b005b6103286004803603810190610323919061245b565b611f44565b604051610336929190612caa565b60405180910390f35b61035960048036038101906103549190612298565b611fbe565b604051610367929190612bd4565b60405180910390f35b61038a600480360381019061038591906122c1565b61200f565b6040516103979190612cf5565b60405180910390f35b60075481565b600073ffffffffffffffffffffffffffffffffffffffff166000803373ffffffffffffffffffffffffffffffffffffffff1673ffffffffffffffffffffffffffffffffffffffff16815260200190815260200160002060000160009054906101000a900473ffffffffffffffffffffffffffffffffffffffff1673ffffffffffffffffffffffffffffffffffffffff1614610476576040517f08c379a000000000000000000000000000000000000000000000000000000000815260040161046d90612eef565b60405180910390fd5b6000803373ffffffffffffffffffffffffffffffffffffffff1673ffffffffffffffffffffffffffffffffffffffff16815260200190815260200160002060000160149054906101000a900460ff1615610505576040517f08c379a00000000000000000000000000000000000000000000000000000000081526004016104fc90612f4f565b60405180910390fd5b600073ffffffffffffffffffffffffffffffffffffffff16600160003373ffffffffffffffffffffffffffffffffffffffff1673ffffffffffffffffffffffffffffffffffffffff16815260200190815260200160002060000160009054906101000a900473ffffffffffffffffffffffffffffffffffffffff1673ffffffffffffffffffffffffffffffffffffffff16146105d6576040517f08c379a00000000000000000000000000000000000000000000000000000000081526004016105cd90612f8f565b60405180910390fd5b60405180604001604052803373ffffffffffffffffffffffffffffffffffffffff16815260200160011515815250600160003373ffffffffffffffffffffffffffffffffffffffff1673ffffffffffffffffffffffffffffffffffffffff16815260200190815260200160002060008201518160000160006101000a81548173ffffffffffffffffffffffffffffffffffffffff021916908373ffffffffffffffffffffffffffffffffffffffff16021790555060208201518160000160146101000a81548160ff0219169083151502179055509050503373ffffffffffffffffffffffffffffffffffffffff167fd25018ce3194e634e1250fd475c3a74e2c6e94be995b65d19b58a3919742d53760405160405180910390a2565b6060600880548060200260200160405190810160405280929190818152602001828054801561077657602002820191906000526020600020905b8160009054906101000a900473ffffffffffffffffffffffffffffffffffffffff1673ffffffffffffffffffffffffffffffffffffffff168152602001906001019080831161072c575b5050505050905090565b6008818154811061079057600080fd5b906000526020600020016000915054906101000a900473ffffffffffffffffffffffffffffffffffffffff1681565b600260009054906101000a900473ffffffffffffffffffffffffffffffffffffffff1681565b60006107ef6106f2565b905060005b8151811015610b15576000828281518110610838577f4e487b7100000000000000000000000000000000000000000000000000000000600052603260045260246000fd5b6020026020010151905060008060008373ffffffffffffffffffffffffffffffffffffffff1673ffffffffffffffffffffffffffffffffffffffff1681526020019081526020016000209050600073ffffffffffffffffffffffffffffffffffffffff168160000160009054906101000a900473ffffffffffffffffffffffffffffffffffffffff1673ffffffffffffffffffffffffffffffffffffffff161415610918576040517f08c379a000000000000000000000000000000000000000000000000000000000815260040161090f90612e6f565b60405180910390fd5b600080600260009054906101000a900473ffffffffffffffffffffffffffffffffffffffff1673ffffffffffffffffffffffffffffffffffffffff166370a08231306040518263ffffffff1660e01b81526004016109769190612b82565b60206040518083038186803b15801561098e57600080fd5b505afa1580156109a2573d6000803e3d6000fd5b505050506040513d601f19601f820116820180604052508101906109c69190612566565b1015610a07576040517f08c379a00000000000000000000000000000000000000000000000000000000081526004016109fe90612eaf565b60405180910390fd5b600260009054906101000a900473ffffffffffffffffffffffffffffffffffffffff1673ffffffffffffffffffffffffffffffffffffffff1663a9059cbb84836040518363ffffffff1660e01b8152600401610a64929190612caa565b602060405180830381600087803b158015610a7e57600080fd5b505af1158015610a92573d6000803e3d6000fd5b505050506040513d601f19601f82011682018060405250810190610ab691906124d3565b610af5576040517f08c379a0000000000000000000000000000000000000000000000000000000008152600401610aec90612e4f565b60405180910390fd5b606482600101819055505050508080610b0d9061325f565b9150506107f4565b5050565b60008060003373ffffffffffffffffffffffffffffffffffffffff1673ffffffffffffffffffffffffffffffffffffffff1681526020019081526020016000209050600073ffffffffffffffffffffffffffffffffffffffff168160000160009054906101000a900473ffffffffffffffffffffffffffffffffffffffff1673ffffffffffffffffffffffffffffffffffffffff161415610bef576040517f08c379a0000000000000000000000000000000000000000000000000000000008152600401610be690612dcf565b60405180910390fd5b8060000160149054906101000a900460ff16610c40576040517f08c379a0000000000000000000000000000000000000000000000000000000008152600401610c3790612e0f565b60405180910390fd5b6000600190508082600101541015610c8d576040517f08c379a0000000000000000000000000000000000000000000000000000000008152600401610c8490612ecf565b60405180910390fd5b600360003373ffffffffffffffffffffffffffffffffffffffff1673ffffffffffffffffffffffffffffffffffffffff1681526020019081526020016000206040518060a001604052803373ffffffffffffffffffffffffffffffffffffffff16815260200185815260200160008152602001600081526020016000815250908060018154018082558091505060019003906000526020600020906005020160009091909190915060008201518160000160006101000a81548173ffffffffffffffffffffffffffffffffffffffff021916908373ffffffffffffffffffffffffffffffffffffffff1602179055506020820151816001019080519060200190610d98929190612124565b5060408201518160020155606082015181600301556080820151816004015550503373ffffffffffffffffffffffffffffffffffffffff167fbeea468e137b52b6592115b4dfeb231bc237cabed56e1b99e505fd2def5539b584604051610dff9190612d46565b60405180910390a280826001016000828254610e1b9190613127565b92505081905550505050565b600660009054906101000a900473ffffffffffffffffffffffffffffffffffffffff1681565b600660009054906101000a900473ffffffffffffffffffffffffffffffffffffffff1673ffffffffffffffffffffffffffffffffffffffff1663cf1a7eee836040518263ffffffff1660e01b8152600401610ea89190612b82565b600060405180830381600087803b158015610ec257600080fd5b505af1158015610ed6573d6000803e3d6000fd5b5050505060008060008473ffffffffffffffffffffffffffffffffffffffff1673ffffffffffffffffffffffffffffffffffffffff16815260200190815260200160002090508060000160149054906101000a900460ff161580610f375750815b15610f5957818160030160006101000a81548160ff0219169083151502179055505b6064816002016000828254610f6e91906130a0565b92505081905550505050565b600660009054906101000a900473ffffffffffffffffffffffffffffffffffffffff1673ffffffffffffffffffffffffffffffffffffffff1663849cc310826040518263ffffffff1660e01b8152600401610fd59190612d46565b600060405180830381600087803b158015610fef57600080fd5b505af1158015611003573d6000803e3d6000fd5b5050505050565b600073ffffffffffffffffffffffffffffffffffffffff166000803373ffffffffffffffffffffffffffffffffffffffff1673ffffffffffffffffffffffffffffffffffffffff16815260200190815260200160002060000160009054906101000a900473ffffffffffffffffffffffffffffffffffffffff1673ffffffffffffffffffffffffffffffffffffffff16146110da576040517f08c379a00000000000000000000000000000000000000000000000000000000081526004016110d190612f0f565b60405180910390fd5b600080600260009054906101000a900473ffffffffffffffffffffffffffffffffffffffff1673ffffffffffffffffffffffffffffffffffffffff166370a08231336040518263ffffffff1660e01b81526004016111389190612b82565b60206040518083038186803b15801561115057600080fd5b505afa158015611164573d6000803e3d6000fd5b505050506040513d601f19601f820116820180604052508101906111889190612566565b10156111c9576040517f08c379a00000000000000000000000000000000000000000000000000000000081526004016111c090612ecf565b60405180910390fd5b600260009054906101000a900473ffffffffffffffffffffffffffffffffffffffff1673ffffffffffffffffffffffffffffffffffffffff166323b872dd3330846040518463ffffffff1660e01b815260040161122893929190612b9d565b602060405180830381600087803b15801561124257600080fd5b505af1158015611256573d6000803e3d6000fd5b505050506040513d601f19601f8201168201806040525081019061127a91906124d3565b6112b9576040517f08c379a00000000000000000000000000000000000000000000000000000000081526004016112b090612e4f565b60405180910390fd5b600073ffffffffffffffffffffffffffffffffffffffff16600160003373ffffffffffffffffffffffffffffffffffffffff1673ffffffffffffffffffffffffffffffffffffffff16815260200190815260200160002060000160009054906101000a900473ffffffffffffffffffffffffffffffffffffffff1673ffffffffffffffffffffffffffffffffffffffff161461138a576040517f08c379a000000000000000000000000000000000000000000000000000000000815260040161138190612def565b60405180910390fd5b6040518060a001604052803373ffffffffffffffffffffffffffffffffffffffff16815260200183151581526020016064815260200160008152602001600015158152506000803373ffffffffffffffffffffffffffffffffffffffff1673ffffffffffffffffffffffffffffffffffffffff16815260200190815260200160002060008201518160000160006101000a81548173ffffffffffffffffffffffffffffffffffffffff021916908373ffffffffffffffffffffffffffffffffffffffff16021790555060208201518160000160146101000a81548160ff021916908315150217905550604082015181600101556060820151816002015560808201518160030160006101000a81548160ff021916908315150217905550905050600760008154809291906114bd9061325f565b91905055506008339080600181540180825580915050600190039060005260206000200160009091909190916101000a81548173ffffffffffffffffffffffffffffffffffffffff021916908373ffffffffffffffffffffffffffffffffffffffff1602179055503373ffffffffffffffffffffffffffffffffffffffff167fc0fc2a0f10d78cecf0d799ad58b617e4dadb84274edef606c438dab4130bf52c8360405161156b9190612cf5565b60405180910390a25050565b60006020528060005260406000206000915090508060000160009054906101000a900473ffffffffffffffffffffffffffffffffffffffff16908060000160149054906101000a900460ff16908060010154908060020154908060030160009054906101000a900460ff16905085565b6003602052816000526040600020818154811061160357600080fd5b9060005260206000209060050201600091509150508060000160009054906101000a900473ffffffffffffffffffffffffffffffffffffffff169080600101805461164d9061322d565b80601f01602080910402602001604051908101604052809291908181526020018280546116799061322d565b80156116c65780601f1061169b576101008083540402835291602001916116c6565b820191906000526020600020905b8154815290600101906020018083116116a957829003601f168201915b5050505050908060020154908060030154908060040154905085565b60008060003373ffffffffffffffffffffffffffffffffffffffff1673ffffffffffffffffffffffffffffffffffffffff1681526020019081526020016000209050600073ffffffffffffffffffffffffffffffffffffffff168160000160009054906101000a900473ffffffffffffffffffffffffffffffffffffffff1673ffffffffffffffffffffffffffffffffffffffff1614156117b8576040517f08c379a00000000000000000000000000000000000000000000000000000000081526004016117af90612e8f565b60405180910390fd5b6000600190508082600101541015611805576040517f08c379a00000000000000000000000000000000000000000000000000000000081526004016117fc90612ecf565b60405180910390fd5b8473ffffffffffffffffffffffffffffffffffffffff163373ffffffffffffffffffffffffffffffffffffffff167f1a19b5ac44e6615e860d2ab0169541fbca212f89c4318324412ff90619595f868686604051611864929190612d68565b60405180910390a3808260010160008282546118809190613127565b925050819055505050505050565b60008060008473ffffffffffffffffffffffffffffffffffffffff1673ffffffffffffffffffffffffffffffffffffffff1681526020019081526020016000209050600073ffffffffffffffffffffffffffffffffffffffff168160000160009054906101000a900473ffffffffffffffffffffffffffffffffffffffff1673ffffffffffffffffffffffffffffffffffffffff161415611964576040517f08c379a000000000000000000000000000000000000000000000000000000000815260040161195b90612dcf565b60405180910390fd5b8060000160149054906101000a900460ff166119b5576040517f08c379a00000000000000000000000000000000000000000000000000000000081526004016119ac90612e0f565b60405180910390fd5b600073ffffffffffffffffffffffffffffffffffffffff166000808473ffffffffffffffffffffffffffffffffffffffff1673ffffffffffffffffffffffffffffffffffffffff16815260200190815260200160002060000160009054906101000a900473ffffffffffffffffffffffffffffffffffffffff1673ffffffffffffffffffffffffffffffffffffffff161415611a86576040517f08c379a0000000000000000000000000000000000000000000000000000000008152600401611a7d90612f2f565b60405180910390fd5b600560008473ffffffffffffffffffffffffffffffffffffffff1673ffffffffffffffffffffffffffffffffffffffff16815260200190815260200160002060008373ffffffffffffffffffffffffffffffffffffffff1673ffffffffffffffffffffffffffffffffffffffff16815260200190815260200160002060009054906101000a900460ff1615611b50576040517f08c379a0000000000000000000000000000000000000000000000000000000008152600401611b4790612e2f565b60405180910390fd5b6032816002016000828254611b6591906130a0565b925050819055506001600560008573ffffffffffffffffffffffffffffffffffffffff1673ffffffffffffffffffffffffffffffffffffffff16815260200190815260200160002060008473ffffffffffffffffffffffffffffffffffffffff1673ffffffffffffffffffffffffffffffffffffffff16815260200190815260200160002060006101000a81548160ff0219169083151502179055508273ffffffffffffffffffffffffffffffffffffffff168273ffffffffffffffffffffffffffffffffffffffff167f4775a6435c52933a84a0721a16ecfdd71ec1ed14be504bcdcbe75e106307a9a960405160405180910390a3505050565b60008060003373ffffffffffffffffffffffffffffffffffffffff1673ffffffffffffffffffffffffffffffffffffffff1681526020019081526020016000209050600073ffffffffffffffffffffffffffffffffffffffff168160000160009054906101000a900473ffffffffffffffffffffffffffffffffffffffff1673ffffffffffffffffffffffffffffffffffffffff161415611d36576040517f08c379a0000000000000000000000000000000000000000000000000000000008152600401611d2d90612e8f565b60405180910390fd5b6000600190508082600101541015611d83576040517f08c379a0000000000000000000000000000000000000000000000000000000008152600401611d7a90612ecf565b60405180910390fd5b8473ffffffffffffffffffffffffffffffffffffffff163373ffffffffffffffffffffffffffffffffffffffff167f5d0a96f557f7ed30ab1ccb3d8202c5e9f69ee0247394be56af47355404a844598686604051611de2929190612d9f565b60405180910390a36000600360008773ffffffffffffffffffffffffffffffffffffffff1673ffffffffffffffffffffffffffffffffffffffff16815260200190815260200160002090506000611e39828761203e565b905081805490508110611e81576040517f08c379a0000000000000000000000000000000000000000000000000000000008152600401611e7890612f6f565b60405180910390fd5b6000828281548110611ebc577f4e487b7100000000000000000000000000000000000000000000000000000000600052603260045260246000fd5b9060005260206000209060050201905085816002016000828254611ee091906130a0565b925050819055506001816003016000828254611efc91906130a0565b9250508190555080600301548160020154611f1791906130f6565b816004018190555083856001016000828254611f339190613127565b925050819055505050505050505050565b60046020528260005260406000208281548110611f6057600080fd5b906000526020600020018181548110611f7857600080fd5b906000526020600020906002020160009250925050508060000160009054906101000a900473ffffffffffffffffffffffffffffffffffffffff16908060010154905082565b60016020528060005260406000206000915090508060000160009054906101000a900473ffffffffffffffffffffffffffffffffffffffff16908060000160149054906101000a900460ff16905082565b60056020528160005260406000206020528060005260406000206000915091509054906101000a900460ff1681565b600080826040516020016120529190612b54565b60405160208183030381529060405280519060200120905060005b84805490508110156121145760008582815481106120b4577f4e487b7100000000000000000000000000000000000000000000000000000000600052603260045260246000fd5b90600052602060002090600502016001016040516020016120d59190612b6b565b604051602081830303815290604052805190602001209050808314156121005781935050505061211e565b50808061210c9061325f565b91505061206d565b5083805490509150505b92915050565b8280546121309061322d565b90600052602060002090601f0160209004810192826121525760008555612199565b82601f1061216b57805160ff1916838001178555612199565b82800160010185558215612199579182015b8281111561219857825182559160200191906001019061217d565b5b5090506121a691906121aa565b5090565b5b808211156121c35760008160009055506001016121ab565b5090565b60006121da6121d584612ffb565b612fca565b9050828152602081018484840111156121f257600080fd5b6121fd8482856131eb565b509392505050565b60008135905061221481613375565b92915050565b6000813590506122298161338c565b92915050565b60008151905061223e8161338c565b92915050565b600082601f83011261225557600080fd5b81356122658482602086016121c7565b91505092915050565b60008135905061227d816133a3565b92915050565b600081519050612292816133a3565b92915050565b6000602082840312156122aa57600080fd5b60006122b884828501612205565b91505092915050565b600080604083850312156122d457600080fd5b60006122e285828601612205565b92505060206122f385828601612205565b9150509250929050565b6000806040838503121561231057600080fd5b600061231e85828601612205565b925050602061232f8582860161221a565b9150509250929050565b60008060006060848603121561234e57600080fd5b600061235c86828701612205565b935050602084013567ffffffffffffffff81111561237957600080fd5b61238586828701612244565b925050604084013567ffffffffffffffff8111156123a257600080fd5b6123ae86828701612244565b9150509250925092565b6000806000606084860312156123cd57600080fd5b60006123db86828701612205565b935050602084013567ffffffffffffffff8111156123f857600080fd5b61240486828701612244565b92505060406124158682870161226e565b9150509250925092565b6000806040838503121561243257600080fd5b600061244085828601612205565b92505060206124518582860161226e565b9150509250929050565b60008060006060848603121561247057600080fd5b600061247e86828701612205565b935050602061248f8682870161226e565b92505060406124a08682870161226e565b9150509250925092565b6000602082840312156124bc57600080fd5b60006124ca8482850161221a565b91505092915050565b6000602082840312156124e557600080fd5b60006124f38482850161222f565b91505092915050565b60006020828403121561250e57600080fd5b600082013567ffffffffffffffff81111561252857600080fd5b61253484828501612244565b91505092915050565b60006020828403121561254f57600080fd5b600061255d8482850161226e565b91505092915050565b60006020828403121561257857600080fd5b600061258684828501612283565b91505092915050565b600061259b83836125a7565b60208301905092915050565b6125b08161315b565b82525050565b6125bf8161315b565b82525050565b60006125d082613050565b6125da8185613073565b93506125e58361302b565b8060005b838110156126165781516125fd888261258f565b975061260883613066565b9250506001810190506125e9565b5085935050505092915050565b61262c8161316d565b82525050565b61263b816131a3565b82525050565b61264a816131c7565b82525050565b600061265b8261305b565b6126658185613084565b93506126758185602086016131fa565b61267e81613364565b840191505092915050565b60006126948261305b565b61269e8185613095565b93506126ae8185602086016131fa565b80840191505092915050565b600081546126c78161322d565b6126d18186613095565b945060018216600081146126ec57600181146126fd57612730565b60ff19831686528186019350612730565b6127068561303b565b60005b8381101561272857815481890152600182019150602081019050612709565b838801955050505b50505092915050565b6000612746601d83613084565b91507f436f6e74656e742063726561746f72206e6f74207369676e65642075700000006000830152602082019050919050565b6000612786602283613084565b91507f56616c696461746f72732063616e6e6f74207369676e2075702061732075736560008301527f72730000000000000000000000000000000000000000000000000000000000006020830152604082019050919050565b60006127ec601383613084565b91507f556e617574686f72697a656420616374696f6e000000000000000000000000006000830152602082019050919050565b600061282c601883613084565b91507f416c7265616479206c696b6564207468652072657669657700000000000000006000830152602082019050919050565b600061286c601583613084565b91507f546f6b656e207472616e73666572206661696c656400000000000000000000006000830152602082019050919050565b60006128ac600e83613084565b91507f55736572206e6f7420666f756e640000000000000000000000000000000000006000830152602082019050919050565b60006128ec601283613084565b91507f55736572206e6f74207369676e656420757000000000000000000000000000006000830152602082019050919050565b600061292c601983613084565b91507f496e73756666696369656e7420746f6b656e20737570706c79000000000000006000830152602082019050919050565b600061296c601a83613084565b91507f496e73756666696369656e7420746f6b656e2062616c616e63650000000000006000830152602082019050919050565b60006129ac601a83613084565b91507f56616c696461746f722063616e6e6f74206265206120757365720000000000006000830152602082019050919050565b60006129ec601683613084565b91507f5573657220616c7265616479207369676e6564207570000000000000000000006000830152602082019050919050565b6000612a2c601683613084565b91507f5265766965776572206e6f74207369676e6564207570000000000000000000006000830152602082019050919050565b6000612a6c602583613084565b91507f56616c696461746f722063616e6e6f74206265206120636f6e74656e7420637260008301527f6561746f720000000000000000000000000000000000000000000000000000006020830152604082019050919050565b6000612ad2600f83613084565b91507f4d6f766965206e6f7420666f756e6400000000000000000000000000000000006000830152602082019050919050565b6000612b12601b83613084565b91507f56616c696461746f7220616c7265616479207369676e656420757000000000006000830152602082019050919050565b612b4e81613199565b82525050565b6000612b608284612689565b915081905092915050565b6000612b7782846126ba565b915081905092915050565b6000602082019050612b9760008301846125b6565b92915050565b6000606082019050612bb260008301866125b6565b612bbf60208301856125b6565b612bcc6040830184612b45565b949350505050565b6000604082019050612be960008301856125b6565b612bf66020830184612623565b9392505050565b600060a082019050612c1260008301886125b6565b612c1f6020830187612623565b612c2c6040830186612b45565b612c396060830185612b45565b612c466080830184612623565b9695505050505050565b600060a082019050612c6560008301886125b6565b8181036020830152612c778187612650565b9050612c866040830186612b45565b612c936060830185612b45565b612ca06080830184612b45565b9695505050505050565b6000604082019050612cbf60008301856125b6565b612ccc6020830184612b45565b9392505050565b60006020820190508181036000830152612ced81846125c5565b905092915050565b6000602082019050612d0a6000830184612623565b92915050565b6000602082019050612d256000830184612632565b92915050565b6000602082019050612d406000830184612641565b92915050565b60006020820190508181036000830152612d608184612650565b905092915050565b60006040820190508181036000830152612d828185612650565b90508181036020830152612d968184612650565b90509392505050565b60006040820190508181036000830152612db98185612650565b9050612dc86020830184612b45565b9392505050565b60006020820190508181036000830152612de881612739565b9050919050565b60006020820190508181036000830152612e0881612779565b9050919050565b60006020820190508181036000830152612e28816127df565b9050919050565b60006020820190508181036000830152612e488161281f565b9050919050565b60006020820190508181036000830152612e688161285f565b9050919050565b60006020820190508181036000830152612e888161289f565b9050919050565b60006020820190508181036000830152612ea8816128df565b9050919050565b60006020820190508181036000830152612ec88161291f565b9050919050565b60006020820190508181036000830152612ee88161295f565b9050919050565b60006020820190508181036000830152612f088161299f565b9050919050565b60006020820190508181036000830152612f28816129df565b9050919050565b60006020820190508181036000830152612f4881612a1f565b9050919050565b60006020820190508181036000830152612f6881612a5f565b9050919050565b60006020820190508181036000830152612f8881612ac5565b9050919050565b60006020820190508181036000830152612fa881612b05565b9050919050565b6000602082019050612fc46000830184612b45565b92915050565b6000604051905081810181811067ffffffffffffffff82111715612ff157612ff0613335565b5b8060405250919050565b600067ffffffffffffffff82111561301657613015613335565b5b601f19601f8301169050602081019050919050565b6000819050602082019050919050565b60008190508160005260206000209050919050565b600081519050919050565b600081519050919050565b6000602082019050919050565b600082825260208201905092915050565b600082825260208201905092915050565b600081905092915050565b60006130ab82613199565b91506130b683613199565b9250827fffffffffffffffffffffffffffffffffffffffffffffffffffffffffffffffff038211156130eb576130ea6132a8565b5b828201905092915050565b600061310182613199565b915061310c83613199565b92508261311c5761311b6132d7565b5b828204905092915050565b600061313282613199565b915061313d83613199565b9250828210156131505761314f6132a8565b5b828203905092915050565b600061316682613179565b9050919050565b60008115159050919050565b600073ffffffffffffffffffffffffffffffffffffffff82169050919050565b6000819050919050565b60006131ae826131b5565b9050919050565b60006131c082613179565b9050919050565b60006131d2826131d9565b9050919050565b60006131e482613179565b9050919050565b82818337600083830152505050565b60005b838110156132185780820151818401526020810190506131fd565b83811115613227576000848401525b50505050565b6000600282049050600182168061324557607f821691505b6020821081141561325957613258613306565b5b50919050565b600061326a82613199565b91507fffffffffffffffffffffffffffffffffffffffffffffffffffffffffffffffff82141561329d5761329c6132a8565b5b600182019050919050565b7f4e487b7100000000000000000000000000000000000000000000000000000000600052601160045260246000fd5b7f4e487b7100000000000000000000000000000000000000000000000000000000600052601260045260246000fd5b7f4e487b7100000000000000000000000000000000000000000000000000000000600052602260045260246000fd5b7f4e487b7100000000000000000000000000000000000000000000000000000000600052604160045260246000fd5b6000601f19601f8301169050919050565b61337e8161315b565b811461338957600080fd5b50565b6133958161316d565b81146133a057600080fd5b50565b6133ac81613199565b81146133b757600080fd5b5056fea2646970667358221220067100b98c5dcd9e01a7918489c16a0093c81f9b2d83160e1d274756c1a7920964736f6c63430008000033",
  "immutableReferences": {},
  "source": "// SPDX-License-Identifier: MIT \r\npragma solidity ^0.8.0;\r\n\r\nimport \"./MovieRatingToken.sol\";\r\nimport \"./Certificate.sol\";\r\n\r\ncontract MovieRatingSystem {\r\n    struct User {\r\n        address userAddress;\r\n        bool isContentCreator;\r\n        uint256 tokenBalance;\r\n        uint256 rep;\r\n        bool validated;\r\n    }\r\n\r\n    struct Movie {\r\n        address contentCreator;\r\n        string movieName;\r\n        uint256 totalRating;\r\n        uint256 ratingCount;\r\n        uint256 avgRating;\r\n    }\r\n\r\n    struct Rating {\r\n        address user;\r\n        uint256 rating;\r\n    }\r\n\r\n    struct Validator {\r\n        address validatorAddress;\r\n        bool registered;\r\n    }\r\n\r\n    mapping(address => User) public users;\r\n    mapping(address => Validator) public validators;\r\n    MovieRatingToken public tokenContract;\r\n    mapping(address => Movie[]) public moviesAddedByUser;\r\n    mapping(address => Rating[][]) public moviesRatedByUser;\r\n    mapping(address => mapping(address => bool)) public likedReviews;\r\n    Certificate public certificateContract;\r\n    uint256 public userCount;\r\n    address[] public userAddresses;\r\n    event UserSignUp(address indexed userAddress, bool isContentCreator);\r\n    event MovieAdded(address indexed contentCreator, string movieName);\r\n    event MovieReviewed(address indexed user, address indexed contentCreator, string movieName, string review);\r\n    event MovieRated(address indexed user, address indexed contentCreator, string movieName, uint256 rating);\r\n    event ReviewLiked(address indexed reviewer, address indexed contentCreator);\r\n    event ValidatorSignUp(address indexed validator);\r\n\r\n    constructor(address _tokenContract, address _certificateContract) {\r\n        tokenContract = MovieRatingToken(_tokenContract);\r\n        certificateContract = Certificate(_certificateContract);\r\n        userCount = 0;\r\n    }\r\n\r\n    function signUp(bool _isContentCreator) external {\r\n    require(users[msg.sender].userAddress == address(0), \"User already signed up\");\r\n\r\n    uint256 tokenCost = 0; // Cost of signup, assuming 1 token\r\n\r\n    require(tokenContract.balanceOf(msg.sender) >= tokenCost, \"Insufficient token balance\");\r\n\r\n    require(tokenContract.transferFrom(msg.sender, address(this), tokenCost), \"Token transfer failed\");\r\n\r\n    if (validators[msg.sender].validatorAddress != address(0)) {\r\n        revert(\"Validators cannot sign up as users\");\r\n    }\r\n\r\n    users[msg.sender] = User(msg.sender, _isContentCreator, 100, 0, false);\r\n    userCount++;\r\n    userAddresses.push(msg.sender);\r\n    emit UserSignUp(msg.sender, _isContentCreator);\r\n    \r\n    }\r\n\r\n\r\n    function replenishTokens() external {\r\n    address[] memory userAddresses = getAllUserAddresses();\r\n    \r\n    for (uint256 i = 0; i < userAddresses.length; i++) {\r\n        address userAddress = userAddresses[i];\r\n        User storage user = users[userAddress];\r\n\r\n        require(user.userAddress != address(0), \"User not found\");\r\n\r\n        uint256 tokenCost = 0; // Cost of token replenishment, assuming 100 tokens\r\n\r\n        require(tokenContract.balanceOf(address(this)) >= tokenCost, \"Insufficient token supply\");\r\n\r\n        require(tokenContract.transfer(userAddress, tokenCost), \"Token transfer failed\");\r\n\r\n        user.tokenBalance = 100;\r\n    }\r\n}\r\n\r\n\r\n    function getAddressAtIndex(mapping(address => User) storage _mapping, uint256 _index) internal view returns (address) {\r\n    address[] memory keys = new address[](userCount);\r\n    uint256 counter = 0;\r\n    for (uint256 i = 0; i < userCount; i++) {\r\n        address userAddress = getAddressAtIndex(_mapping, i);\r\n        if (_mapping[userAddress].userAddress != address(0)) {\r\n            if (counter == _index) {\r\n                return userAddress;\r\n            }\r\n            counter++;\r\n        }\r\n    }\r\n    revert(\"Index out of bounds\");\r\n}\r\n\r\n\r\n    function getAllUserAddresses() public view returns (address[] memory) {\r\n        return userAddresses;\r\n    }\r\n    function addMovie(string memory _movieName) external {\r\n        User storage contentCreator = users[msg.sender];\r\n        require(contentCreator.userAddress != address(0), \"Content creator not signed up\");\r\n        require(contentCreator.isContentCreator, \"Unauthorized action\");\r\n\r\n        uint256 tokenCost = 1; // Cost of adding a movie, assuming 1 token\r\n\r\n        require(contentCreator.tokenBalance >= tokenCost, \"Insufficient token balance\");\r\n\r\n        // Perform the action of adding a movie\r\n        moviesAddedByUser[msg.sender].push(Movie(msg.sender, _movieName, 0, 0, 0));\r\n\r\n        emit MovieAdded(msg.sender, _movieName);\r\n\r\n        contentCreator.tokenBalance -= tokenCost;\r\n    }\r\n\r\n    function reviewMovie(address _contentCreator, string memory _movieName, string memory _review) external {\r\n        User storage user = users[msg.sender];\r\n        require(user.userAddress != address(0), \"User not signed up\");\r\n\r\n        uint256 tokenCost = 1; // Cost of reviewing a movie, assuming 1 token\r\n\r\n        require(user.tokenBalance >= tokenCost, \"Insufficient token balance\");\r\n\r\n        // Perform the action of reviewing a movie\r\n        emit MovieReviewed(msg.sender, _contentCreator, _movieName, _review);\r\n\r\n        user.tokenBalance -= tokenCost;\r\n    }\r\n\r\n    function rateMovie(address _contentCreator, string memory _movieName, uint256 _rating) external {\r\n        User storage user = users[msg.sender];\r\n        require(user.userAddress != address(0), \"User not signed up\");\r\n\r\n        uint256 tokenCost = 1; // Cost of rating a movie, assuming 1 token\r\n\r\n        require(user.tokenBalance >= tokenCost, \"Insufficient token balance\");\r\n\r\n        // Perform the action of rating a movie\r\n        emit MovieRated(msg.sender, _contentCreator, _movieName, _rating);\r\n\r\n        Movie[] storage movies = moviesAddedByUser[_contentCreator];\r\n        uint256 movieIndex = getMovieIndex(movies, _movieName);\r\n\r\n        require(movieIndex < movies.length, \"Movie not found\");\r\n\r\n        Movie storage movie = movies[movieIndex];\r\n\r\n        // Update the total rating and rating count of the movie\r\n        movie.totalRating += _rating;\r\n        movie.ratingCount += 1;\r\n        movie.avgRating = movie.totalRating / movie.ratingCount;\r\n\r\n        user.tokenBalance -= tokenCost;\r\n    }\r\n\r\n    function likeReview(address _contentCreator, address _reviewer) external {\r\n        User storage contentCreator = users[_contentCreator];\r\n        require(contentCreator.userAddress != address(0), \"Content creator not signed up\");\r\n        require(contentCreator.isContentCreator, \"Unauthorized action\");\r\n\r\n        require(users[_reviewer].userAddress != address(0), \"Reviewer not signed up\");\r\n\r\n        require(!likedReviews[_contentCreator][_reviewer], \"Already liked the review\");\r\n\r\n        contentCreator.rep += 50;\r\n        likedReviews[_contentCreator][_reviewer] = true;\r\n\r\n        emit ReviewLiked(_reviewer, _contentCreator);\r\n    }\r\n\r\n    function getMovieIndex(Movie[] storage _movies, string memory _movieName) internal view returns (uint256) {\r\n        bytes32 movieHash = keccak256(abi.encodePacked(_movieName));\r\n        for (uint256 i = 0; i < _movies.length; i++) {\r\n            bytes32 existingMovieHash = keccak256(abi.encodePacked(_movies[i].movieName));\r\n            if (movieHash == existingMovieHash) {\r\n                return i;\r\n            }\r\n        }\r\n        return _movies.length;\r\n    }\r\n\r\n    function uploadCertificate(string memory _certificateHash) external {\r\n        certificateContract.uploadCertificate(_certificateHash);\r\n    }\r\n\r\n    function validateCertificate(address _owner, bool _status) external {\r\n        certificateContract.validateCertificate(_owner);\r\n        User storage user = users[_owner];\r\n        if (!user.isContentCreator || _status) {\r\n            user.validated = _status;\r\n        }\r\n        user.rep += 100;\r\n    }\r\n\r\n    function validatorSignUp() external {\r\n        require(users[msg.sender].userAddress == address(0), \"Validator cannot be a user\");\r\n        require(!users[msg.sender].isContentCreator, \"Validator cannot be a content creator\");\r\n        require(validators[msg.sender].validatorAddress == address(0), \"Validator already signed up\");\r\n\r\n        validators[msg.sender] = Validator(msg.sender, true);\r\n\r\n        emit ValidatorSignUp(msg.sender);\r\n    }\r\n}",
  "sourcePath": "C:\\Users\\berke\\OneDrive\\Masast\\bmcs\\contracts\\MovieRatingSystem.sol",
  "compiler": {
    "name": "solc",
    "version": "0.8.0+commit.c7dfd78e.Emscripten.clang"
  },
  "schemaVersion": "3.4.14",
  "updatedAt": "2023-06-04T20:50:11.031Z",
  "networkType": "ethereum",
  "devdoc": {
    "kind": "dev",
    "methods": {},
    "version": 1
  },
  "userdoc": {
    "kind": "user",
    "methods": {},
    "version": 1
  }
}