{
  "contractName": "MovieRatingSystem",
  "abi": [
    {
      "inputs": [
        {
          "internalType": "address",
          "name": "_tokenContract",
          "type": "address"
        },
        {
          "internalType": "address",
          "name": "_certificateContract",
          "type": "address"
        }
      ],
      "stateMutability": "nonpayable",
      "type": "constructor"
    },
    {
      "anonymous": false,
      "inputs": [
        {
          "indexed": true,
          "internalType": "address",
          "name": "owner",
          "type": "address"
        },
        {
          "indexed": false,
          "internalType": "string",
          "name": "certificateHash",
          "type": "string"
        }
      ],
      "name": "CertificateUploaded",
      "type": "event"
    },
    {
      "anonymous": false,
      "inputs": [
        {
          "indexed": true,
          "internalType": "address",
          "name": "contentCreator",
          "type": "address"
        },
        {
          "indexed": false,
          "internalType": "string",
          "name": "movieName",
          "type": "string"
        }
      ],
      "name": "MovieAdded",
      "type": "event"
    },
    {
      "anonymous": false,
      "inputs": [
        {
          "indexed": true,
          "internalType": "address",
          "name": "user",
          "type": "address"
        },
        {
          "indexed": true,
          "internalType": "address",
          "name": "contentCreator",
          "type": "address"
        },
        {
          "indexed": false,
          "internalType": "string",
          "name": "movieName",
          "type": "string"
        },
        {
          "indexed": false,
          "internalType": "uint256",
          "name": "rating",
          "type": "uint256"
        }
      ],
      "name": "MovieRated",
      "type": "event"
    },
    {
      "anonymous": false,
      "inputs": [
        {
          "indexed": true,
          "internalType": "address",
          "name": "user",
          "type": "address"
        },
        {
          "indexed": true,
          "internalType": "address",
          "name": "contentCreator",
          "type": "address"
        },
        {
          "indexed": false,
          "internalType": "string",
          "name": "movieName",
          "type": "string"
        },
        {
          "indexed": false,
          "internalType": "string",
          "name": "review",
          "type": "string"
        }
      ],
      "name": "MovieReviewed",
      "type": "event"
    },
    {
      "anonymous": false,
      "inputs": [
        {
          "indexed": true,
          "internalType": "address",
          "name": "contentCreator",
          "type": "address"
        },
        {
          "indexed": false,
          "internalType": "string",
          "name": "movieName",
          "type": "string"
        }
      ],
      "name": "MovieValidated",
      "type": "event"
    },
    {
      "anonymous": false,
      "inputs": [
        {
          "indexed": true,
          "internalType": "address",
          "name": "reviewer",
          "type": "address"
        },
        {
          "indexed": true,
          "internalType": "address",
          "name": "contentCreator",
          "type": "address"
        }
      ],
      "name": "ReviewLiked",
      "type": "event"
    },
    {
      "anonymous": false,
      "inputs": [
        {
          "indexed": true,
          "internalType": "address",
          "name": "userAddress",
          "type": "address"
        },
        {
          "indexed": false,
          "internalType": "bool",
          "name": "isContentCreator",
          "type": "bool"
        }
      ],
      "name": "UserSignUp",
      "type": "event"
    },
    {
      "inputs": [],
      "name": "certificateContract",
      "outputs": [
        {
          "internalType": "contract Certificate",
          "name": "",
          "type": "address"
        }
      ],
      "stateMutability": "view",
      "type": "function",
      "constant": true
    },
    {
      "inputs": [
        {
          "internalType": "address",
          "name": "",
          "type": "address"
        },
        {
          "internalType": "address",
          "name": "",
          "type": "address"
        }
      ],
      "name": "likedReviews",
      "outputs": [
        {
          "internalType": "bool",
          "name": "",
          "type": "bool"
        }
      ],
      "stateMutability": "view",
      "type": "function",
      "constant": true
    },
    {
      "inputs": [
        {
          "internalType": "address",
          "name": "",
          "type": "address"
        },
        {
          "internalType": "uint256",
          "name": "",
          "type": "uint256"
        }
      ],
      "name": "moviesAddedByUser",
      "outputs": [
        {
          "internalType": "address",
          "name": "contentCreator",
          "type": "address"
        },
        {
          "internalType": "string",
          "name": "movieName",
          "type": "string"
        },
        {
          "internalType": "uint256",
          "name": "totalRating",
          "type": "uint256"
        },
        {
          "internalType": "uint256",
          "name": "ratingCount",
          "type": "uint256"
        },
        {
          "internalType": "uint256",
          "name": "avgRating",
          "type": "uint256"
        },
        {
          "internalType": "uint256",
          "name": "validationCount",
          "type": "uint256"
        },
        {
          "internalType": "bool",
          "name": "isValid",
          "type": "bool"
        }
      ],
      "stateMutability": "view",
      "type": "function",
      "constant": true
    },
    {
      "inputs": [
        {
          "internalType": "address",
          "name": "",
          "type": "address"
        },
        {
          "internalType": "uint256",
          "name": "",
          "type": "uint256"
        },
        {
          "internalType": "uint256",
          "name": "",
          "type": "uint256"
        }
      ],
      "name": "moviesRatedByUser",
      "outputs": [
        {
          "internalType": "address",
          "name": "user",
          "type": "address"
        },
        {
          "internalType": "uint256",
          "name": "rating",
          "type": "uint256"
        }
      ],
      "stateMutability": "view",
      "type": "function",
      "constant": true
    },
    {
      "inputs": [],
      "name": "replenishmentVotes",
      "outputs": [
        {
          "internalType": "uint256",
          "name": "",
          "type": "uint256"
        }
      ],
      "stateMutability": "view",
      "type": "function",
      "constant": true
    },
    {
      "inputs": [],
      "name": "tokenContract",
      "outputs": [
        {
          "internalType": "contract MovieRatingToken",
          "name": "",
          "type": "address"
        }
      ],
      "stateMutability": "view",
      "type": "function",
      "constant": true
    },
    {
      "inputs": [
        {
          "internalType": "uint256",
          "name": "",
          "type": "uint256"
        }
      ],
      "name": "userAddresses",
      "outputs": [
        {
          "internalType": "address",
          "name": "",
          "type": "address"
        }
      ],
      "stateMutability": "view",
      "type": "function",
      "constant": true
    },
    {
      "inputs": [],
      "name": "userCount",
      "outputs": [
        {
          "internalType": "uint256",
          "name": "",
          "type": "uint256"
        }
      ],
      "stateMutability": "view",
      "type": "function",
      "constant": true
    },
    {
      "inputs": [
        {
          "internalType": "address",
          "name": "",
          "type": "address"
        }
      ],
      "name": "users",
      "outputs": [
        {
          "internalType": "address",
          "name": "userAddress",
          "type": "address"
        },
        {
          "internalType": "bool",
          "name": "isContentCreator",
          "type": "bool"
        },
        {
          "internalType": "uint256",
          "name": "tokenBalance",
          "type": "uint256"
        },
        {
          "internalType": "uint256",
          "name": "rep",
          "type": "uint256"
        },
        {
          "internalType": "bool",
          "name": "validated",
          "type": "bool"
        }
      ],
      "stateMutability": "view",
      "type": "function",
      "constant": true
    },
    {
      "inputs": [
        {
          "internalType": "address",
          "name": "",
          "type": "address"
        }
      ],
      "name": "votedForReplenishment",
      "outputs": [
        {
          "internalType": "bool",
          "name": "",
          "type": "bool"
        }
      ],
      "stateMutability": "view",
      "type": "function",
      "constant": true
    },
    {
      "inputs": [
        {
          "internalType": "bool",
          "name": "_isContentCreator",
          "type": "bool"
        }
      ],
      "name": "signUp",
      "outputs": [],
      "stateMutability": "nonpayable",
      "type": "function"
    },
    {
      "inputs": [
        {
          "internalType": "address",
          "name": "_contentCreator",
          "type": "address"
        }
      ],
      "name": "checkValidation",
      "outputs": [
        {
          "internalType": "bool",
          "name": "",
          "type": "bool"
        }
      ],
      "stateMutability": "view",
      "type": "function",
      "constant": true
    },
    {
      "inputs": [],
      "name": "voteForReplenishment",
      "outputs": [],
      "stateMutability": "nonpayable",
      "type": "function"
    },
    {
      "inputs": [
        {
          "internalType": "address",
          "name": "_contentCreator",
          "type": "address"
        },
        {
          "internalType": "string",
          "name": "_movieName",
          "type": "string"
        }
      ],
      "name": "validateMovie",
      "outputs": [],
      "stateMutability": "nonpayable",
      "type": "function"
    },
    {
      "inputs": [],
      "name": "getAllUserAddresses",
      "outputs": [
        {
          "internalType": "address[]",
          "name": "",
          "type": "address[]"
        }
      ],
      "stateMutability": "view",
      "type": "function",
      "constant": true
    },
    {
      "inputs": [
        {
          "internalType": "string",
          "name": "_movieName",
          "type": "string"
        }
      ],
      "name": "addMovie",
      "outputs": [],
      "stateMutability": "nonpayable",
      "type": "function"
    },
    {
      "inputs": [
        {
          "internalType": "address",
          "name": "_contentCreator",
          "type": "address"
        },
        {
          "internalType": "string",
          "name": "_movieName",
          "type": "string"
        },
        {
          "internalType": "string",
          "name": "_review",
          "type": "string"
        }
      ],
      "name": "reviewMovie",
      "outputs": [],
      "stateMutability": "nonpayable",
      "type": "function"
    },
    {
      "inputs": [
        {
          "internalType": "address",
          "name": "_contentCreator",
          "type": "address"
        },
        {
          "internalType": "string",
          "name": "_movieName",
          "type": "string"
        },
        {
          "internalType": "uint256",
          "name": "_rating",
          "type": "uint256"
        }
      ],
      "name": "rateMovie",
      "outputs": [],
      "stateMutability": "nonpayable",
      "type": "function"
    },
    {
      "inputs": [
        {
          "internalType": "address",
          "name": "_contentCreator",
          "type": "address"
        },
        {
          "internalType": "address",
          "name": "_reviewer",
          "type": "address"
        }
      ],
      "name": "likeReview",
      "outputs": [],
      "stateMutability": "nonpayable",
      "type": "function"
    },
    {
      "inputs": [
        {
          "internalType": "string",
          "name": "_certificateHash",
          "type": "string"
        }
      ],
      "name": "uploadCertificate",
      "outputs": [],
      "stateMutability": "nonpayable",
      "type": "function"
    }
  ],
  "bytecode": "0x60806040523480156200001157600080fd5b50604051620037f2380380620037f28339818101604052810190620000379190620000e0565b81600160006101000a81548173ffffffffffffffffffffffffffffffffffffffff021916908373ffffffffffffffffffffffffffffffffffffffff16021790555080600660006101000a81548173ffffffffffffffffffffffffffffffffffffffff021916908373ffffffffffffffffffffffffffffffffffffffff160217905550600060078190555050506200016f565b600081519050620000da8162000155565b92915050565b60008060408385031215620000f457600080fd5b60006200010485828601620000c9565b92505060206200011785828601620000c9565b9150509250929050565b60006200012e8262000135565b9050919050565b600073ffffffffffffffffffffffffffffffffffffffff82169050919050565b620001608162000121565b81146200016c57600080fd5b50565b613673806200017f6000396000f3fe608060405234801561001057600080fd5b506004361061012c5760003560e01c8063a85c17e2116100ad578063d2289ca711610071578063d2289ca714610325578063e0630b7d14610341578063e7ae35201461035f578063e8daa6e614610390578063fbb56813146103c05761012c565b8063a85c17e214610267578063a87430ba14610283578063bde823e6146102b7578063c664bdcb146102ed578063c6cc921b146103095761012c565b806355a8bcdc116100f457806355a8bcdc146101c5578063566b2474146101e157806372511e4714610211578063779c7ac31461022d578063849cc3101461024b5761012c565b806307973ccf146101315780631646624b1461014f5780632f33002314610159578063502c9bd51461017757806355a373d6146101a7575b600080fd5b6101396103f0565b60405161014691906131d8565b60405180910390f35b6101576103f6565b005b6101616105f8565b60405161016e9190612f5c565b60405180910390f35b610191600480360381019061018c91906128df565b610686565b60405161019e9190612e18565b60405180910390f35b6101af6106c5565b6040516101bc9190612fb4565b60405180910390f35b6101df60048036038101906101da9190612687565b6106eb565b005b6101fb60048036038101906101f69190612622565b6109fc565b6040516102089190612f7e565b60405180910390f35b61022b6004803603810190610226919061289e565b610ae4565b005b610235610e2c565b6040516102429190612f99565b60405180910390f35b6102656004803603810190610260919061289e565b610e52565b005b610281600480360381019061027c919061284c565b611023565b005b61029d60048036038101906102989190612622565b6114bf565b6040516102ae959493929190612e6a565b60405180910390f35b6102d160048036038101906102cc91906127c1565b61152f565b6040516102e49796959493929190612ebd565b60405180910390f35b610307600480360381019061030291906126db565b611643565b005b610323600480360381019061031e919061264b565b6117ef565b005b61033f600480360381019061033a919061275a565b611be3565b005b610349611ec7565b60405161035691906131d8565b60405180910390f35b610379600480360381019061037491906127fd565b611ecd565b604051610387929190612f33565b60405180910390f35b6103aa60048036038101906103a59190612622565b611f47565b6040516103b79190612f7e565b60405180910390f35b6103da60048036038101906103d5919061264b565b611f67565b6040516103e79190612f7e565b60405180910390f35b60075481565b60008060003373ffffffffffffffffffffffffffffffffffffffff1673ffffffffffffffffffffffffffffffffffffffff1681526020019081526020016000209050600073ffffffffffffffffffffffffffffffffffffffff168160000160009054906101000a900473ffffffffffffffffffffffffffffffffffffffff1673ffffffffffffffffffffffffffffffffffffffff1614156104cc576040517f08c379a00000000000000000000000000000000000000000000000000000000081526004016104c3906130f8565b60405180910390fd5b600260003373ffffffffffffffffffffffffffffffffffffffff1673ffffffffffffffffffffffffffffffffffffffff16815260200190815260200160002060009054906101000a900460ff1615610559576040517f08c379a000000000000000000000000000000000000000000000000000000000815260040161055090613198565b60405180910390fd5b6001600260003373ffffffffffffffffffffffffffffffffffffffff1673ffffffffffffffffffffffffffffffffffffffff16815260200190815260200160002060006101000a81548160ff021916908315150217905550600960008154809291906105c4906134e2565b91905055506064603c6007546105da9190613350565b6105e4919061331f565b600954106105f5576105f4611f96565b5b50565b6060600880548060200260200160405190810160405280929190818152602001828054801561067c57602002820191906000526020600020905b8160009054906101000a900473ffffffffffffffffffffffffffffffffffffffff1673ffffffffffffffffffffffffffffffffffffffff1681526020019060010190808311610632575b5050505050905090565b6008818154811061069657600080fd5b906000526020600020016000915054906101000a900473ffffffffffffffffffffffffffffffffffffffff1681565b600160009054906101000a900473ffffffffffffffffffffffffffffffffffffffff1681565b60008060008473ffffffffffffffffffffffffffffffffffffffff1673ffffffffffffffffffffffffffffffffffffffff1681526020019081526020016000209050600073ffffffffffffffffffffffffffffffffffffffff168160000160009054906101000a900473ffffffffffffffffffffffffffffffffffffffff1673ffffffffffffffffffffffffffffffffffffffff1614156107c1576040517f08c379a00000000000000000000000000000000000000000000000000000000081526004016107b890613058565b60405180910390fd5b8060000160149054906101000a900460ff16610812576040517f08c379a000000000000000000000000000000000000000000000000000000000815260040161080990613078565b60405180910390fd5b6000600360008573ffffffffffffffffffffffffffffffffffffffff1673ffffffffffffffffffffffffffffffffffffffff1681526020019081526020016000209050600061086182856123c8565b9050818054905081106108a9576040517f08c379a00000000000000000000000000000000000000000000000000000000081526004016108a0906131b8565b60405180910390fd5b60008282815481106108e4577f4e487b7100000000000000000000000000000000000000000000000000000000600052603260045260246000fd5b90600052602060002090600702019050806005016000815480929190610909906134e2565b91905055508060060160009054906101000a900460ff1615801561094b5750606460286007546109399190613350565b610943919061331f565b816005015410155b156109a65760018160060160006101000a81548160ff02191690831515021790555060c884600201600082825461098291906132c9565b92505081905550603284600101600082825461099e91906132c9565b925050819055505b8573ffffffffffffffffffffffffffffffffffffffff167f1ec994d88c7bb506ab7dfadc9f7ad6d292ab7b9d7ed4b9e26053d81c0abae7a6866040516109ec9190612fcf565b60405180910390a2505050505050565b6000806000808473ffffffffffffffffffffffffffffffffffffffff1673ffffffffffffffffffffffffffffffffffffffff1681526020019081526020016000209050600073ffffffffffffffffffffffffffffffffffffffff168160000160009054906101000a900473ffffffffffffffffffffffffffffffffffffffff1673ffffffffffffffffffffffffffffffffffffffff161415610ad3576040517f08c379a0000000000000000000000000000000000000000000000000000000008152600401610aca90613058565b60405180910390fd5b6105dc816002015411915050919050565b60008060003373ffffffffffffffffffffffffffffffffffffffff1673ffffffffffffffffffffffffffffffffffffffff1681526020019081526020016000209050600073ffffffffffffffffffffffffffffffffffffffff168160000160009054906101000a900473ffffffffffffffffffffffffffffffffffffffff1673ffffffffffffffffffffffffffffffffffffffff161415610bba576040517f08c379a0000000000000000000000000000000000000000000000000000000008152600401610bb190613058565b60405180910390fd5b8060000160149054906101000a900460ff16610c0b576040517f08c379a0000000000000000000000000000000000000000000000000000000008152600401610c0290613078565b60405180910390fd5b6000600190508082600101541015610c58576040517f08c379a0000000000000000000000000000000000000000000000000000000008152600401610c4f90613138565b60405180910390fd5b600360003373ffffffffffffffffffffffffffffffffffffffff1673ffffffffffffffffffffffffffffffffffffffff1681526020019081526020016000206040518060e001604052803373ffffffffffffffffffffffffffffffffffffffff1681526020018581526020016000815260200160008152602001600081526020016000815260200160001515815250908060018154018082558091505060019003906000526020600020906007020160009091909190915060008201518160000160006101000a81548173ffffffffffffffffffffffffffffffffffffffff021916908373ffffffffffffffffffffffffffffffffffffffff1602179055506020820151816001019080519060200190610d739291906124ae565b5060408201518160020155606082015181600301556080820151816004015560a0820151816005015560c08201518160060160006101000a81548160ff02191690831515021790555050503373ffffffffffffffffffffffffffffffffffffffff167fbeea468e137b52b6592115b4dfeb231bc237cabed56e1b99e505fd2def5539b584604051610e049190612fcf565b60405180910390a280826001016000828254610e2091906133aa565b92505081905550505050565b600660009054906101000a900473ffffffffffffffffffffffffffffffffffffffff1681565b600660009054906101000a900473ffffffffffffffffffffffffffffffffffffffff1673ffffffffffffffffffffffffffffffffffffffff1663849cc310826040518263ffffffff1660e01b8152600401610ead9190612fcf565b600060405180830381600087803b158015610ec757600080fd5b505af1158015610edb573d6000803e3d6000fd5b5050505060008060003373ffffffffffffffffffffffffffffffffffffffff1673ffffffffffffffffffffffffffffffffffffffff1681526020019081526020016000209050600073ffffffffffffffffffffffffffffffffffffffff168160000160009054906101000a900473ffffffffffffffffffffffffffffffffffffffff1673ffffffffffffffffffffffffffffffffffffffff161415610fb5576040517f08c379a0000000000000000000000000000000000000000000000000000000008152600401610fac90613058565b60405180910390fd5b6032816002016000828254610fca91906132c9565b925050819055503373ffffffffffffffffffffffffffffffffffffffff167f39f06bf218f917b73c97d18d50263951aa00e26d57e089e1e029bb104a81840b836040516110179190612fcf565b60405180910390a25050565b600073ffffffffffffffffffffffffffffffffffffffff166000803373ffffffffffffffffffffffffffffffffffffffff1673ffffffffffffffffffffffffffffffffffffffff16815260200190815260200160002060000160009054906101000a900473ffffffffffffffffffffffffffffffffffffffff1673ffffffffffffffffffffffffffffffffffffffff16146110f3576040517f08c379a00000000000000000000000000000000000000000000000000000000081526004016110ea90613158565b60405180910390fd5b600080600160009054906101000a900473ffffffffffffffffffffffffffffffffffffffff1673ffffffffffffffffffffffffffffffffffffffff166370a08231336040518263ffffffff1660e01b81526004016111519190612e18565b60206040518083038186803b15801561116957600080fd5b505afa15801561117d573d6000803e3d6000fd5b505050506040513d601f19601f820116820180604052508101906111a19190612908565b10156111e2576040517f08c379a00000000000000000000000000000000000000000000000000000000081526004016111d990613138565b60405180910390fd5b600160009054906101000a900473ffffffffffffffffffffffffffffffffffffffff1673ffffffffffffffffffffffffffffffffffffffff166323b872dd3330846040518463ffffffff1660e01b815260040161124193929190612e33565b602060405180830381600087803b15801561125b57600080fd5b505af115801561126f573d6000803e3d6000fd5b505050506040513d601f19601f820116820180604052508101906112939190612875565b6112d2576040517f08c379a00000000000000000000000000000000000000000000000000000000081526004016112c9906130b8565b60405180910390fd5b6040518060a001604052803373ffffffffffffffffffffffffffffffffffffffff16815260200183151581526020016064815260200160008152602001600015158152506000803373ffffffffffffffffffffffffffffffffffffffff1673ffffffffffffffffffffffffffffffffffffffff16815260200190815260200160002060008201518160000160006101000a81548173ffffffffffffffffffffffffffffffffffffffff021916908373ffffffffffffffffffffffffffffffffffffffff16021790555060208201518160000160146101000a81548160ff021916908315150217905550604082015181600101556060820151816002015560808201518160030160006101000a81548160ff02191690831515021790555090505060076000815480929190611405906134e2565b91905055506008339080600181540180825580915050600190039060005260206000200160009091909190916101000a81548173ffffffffffffffffffffffffffffffffffffffff021916908373ffffffffffffffffffffffffffffffffffffffff1602179055503373ffffffffffffffffffffffffffffffffffffffff167fc0fc2a0f10d78cecf0d799ad58b617e4dadb84274edef606c438dab4130bf52c836040516114b39190612f7e565b60405180910390a25050565b60006020528060005260406000206000915090508060000160009054906101000a900473ffffffffffffffffffffffffffffffffffffffff16908060000160149054906101000a900460ff16908060010154908060020154908060030160009054906101000a900460ff16905085565b6003602052816000526040600020818154811061154b57600080fd5b9060005260206000209060070201600091509150508060000160009054906101000a900473ffffffffffffffffffffffffffffffffffffffff1690806001018054611595906134b0565b80601f01602080910402602001604051908101604052809291908181526020018280546115c1906134b0565b801561160e5780601f106115e35761010080835404028352916020019161160e565b820191906000526020600020905b8154815290600101906020018083116115f157829003601f168201915b5050505050908060020154908060030154908060040154908060050154908060060160009054906101000a900460ff16905087565b60008060003373ffffffffffffffffffffffffffffffffffffffff1673ffffffffffffffffffffffffffffffffffffffff1681526020019081526020016000209050600073ffffffffffffffffffffffffffffffffffffffff168160000160009054906101000a900473ffffffffffffffffffffffffffffffffffffffff1673ffffffffffffffffffffffffffffffffffffffff161415611719576040517f08c379a0000000000000000000000000000000000000000000000000000000008152600401611710906130f8565b60405180910390fd5b6000600190508082600101541015611766576040517f08c379a000000000000000000000000000000000000000000000000000000000815260040161175d90613138565b60405180910390fd5b8473ffffffffffffffffffffffffffffffffffffffff163373ffffffffffffffffffffffffffffffffffffffff167f1a19b5ac44e6615e860d2ab0169541fbca212f89c4318324412ff90619595f8686866040516117c5929190612ff1565b60405180910390a3808260010160008282546117e191906133aa565b925050819055505050505050565b60008060008473ffffffffffffffffffffffffffffffffffffffff1673ffffffffffffffffffffffffffffffffffffffff1681526020019081526020016000209050600073ffffffffffffffffffffffffffffffffffffffff168160000160009054906101000a900473ffffffffffffffffffffffffffffffffffffffff1673ffffffffffffffffffffffffffffffffffffffff1614156118c5576040517f08c379a00000000000000000000000000000000000000000000000000000000081526004016118bc90613058565b60405180910390fd5b8060000160149054906101000a900460ff16611916576040517f08c379a000000000000000000000000000000000000000000000000000000000815260040161190d90613078565b60405180910390fd5b60008060008473ffffffffffffffffffffffffffffffffffffffff1673ffffffffffffffffffffffffffffffffffffffff1681526020019081526020016000209050600073ffffffffffffffffffffffffffffffffffffffff168160000160009054906101000a900473ffffffffffffffffffffffffffffffffffffffff1673ffffffffffffffffffffffffffffffffffffffff1614156119ec576040517f08c379a00000000000000000000000000000000000000000000000000000000081526004016119e390613178565b60405180910390fd5b600560008573ffffffffffffffffffffffffffffffffffffffff1673ffffffffffffffffffffffffffffffffffffffff16815260200190815260200160002060008473ffffffffffffffffffffffffffffffffffffffff1673ffffffffffffffffffffffffffffffffffffffff16815260200190815260200160002060009054906101000a900460ff1615611ab6576040517f08c379a0000000000000000000000000000000000000000000000000000000008152600401611aad90613098565b60405180910390fd5b6032826002016000828254611acb91906132c9565b925050819055506001600560008673ffffffffffffffffffffffffffffffffffffffff1673ffffffffffffffffffffffffffffffffffffffff16815260200190815260200160002060008573ffffffffffffffffffffffffffffffffffffffff1673ffffffffffffffffffffffffffffffffffffffff16815260200190815260200160002060006101000a81548160ff0219169083151502179055506002816001016000828254611b7c91906132c9565b925050819055508373ffffffffffffffffffffffffffffffffffffffff168373ffffffffffffffffffffffffffffffffffffffff167f4775a6435c52933a84a0721a16ecfdd71ec1ed14be504bcdcbe75e106307a9a960405160405180910390a350505050565b60008060003373ffffffffffffffffffffffffffffffffffffffff1673ffffffffffffffffffffffffffffffffffffffff1681526020019081526020016000209050600073ffffffffffffffffffffffffffffffffffffffff168160000160009054906101000a900473ffffffffffffffffffffffffffffffffffffffff1673ffffffffffffffffffffffffffffffffffffffff161415611cb9576040517f08c379a0000000000000000000000000000000000000000000000000000000008152600401611cb0906130f8565b60405180910390fd5b6000600190508082600101541015611d06576040517f08c379a0000000000000000000000000000000000000000000000000000000008152600401611cfd90613138565b60405180910390fd5b8473ffffffffffffffffffffffffffffffffffffffff163373ffffffffffffffffffffffffffffffffffffffff167f5d0a96f557f7ed30ab1ccb3d8202c5e9f69ee0247394be56af47355404a844598686604051611d65929190613028565b60405180910390a36000600360008773ffffffffffffffffffffffffffffffffffffffff1673ffffffffffffffffffffffffffffffffffffffff16815260200190815260200160002090506000611dbc82876123c8565b905081805490508110611e04576040517f08c379a0000000000000000000000000000000000000000000000000000000008152600401611dfb906131b8565b60405180910390fd5b6000828281548110611e3f577f4e487b7100000000000000000000000000000000000000000000000000000000600052603260045260246000fd5b9060005260206000209060070201905085816002016000828254611e6391906132c9565b925050819055506001816003016000828254611e7f91906132c9565b9250508190555080600301548160020154611e9a919061331f565b816004018190555083856001016000828254611eb691906133aa565b925050819055505050505050505050565b60095481565b60046020528260005260406000208281548110611ee957600080fd5b906000526020600020018181548110611f0157600080fd5b906000526020600020906002020160009250925050508060000160009054906101000a900473ffffffffffffffffffffffffffffffffffffffff16908060010154905082565b60026020528060005260406000206000915054906101000a900460ff1681565b60056020528160005260406000206020528060005260406000206000915091509054906101000a900460ff1681565b6000611fa06105f8565b905060005b8151811015612306576000828281518110611fe9577f4e487b7100000000000000000000000000000000000000000000000000000000600052603260045260246000fd5b6020026020010151905060008060008373ffffffffffffffffffffffffffffffffffffffff1673ffffffffffffffffffffffffffffffffffffffff1681526020019081526020016000209050600073ffffffffffffffffffffffffffffffffffffffff168160000160009054906101000a900473ffffffffffffffffffffffffffffffffffffffff1673ffffffffffffffffffffffffffffffffffffffff1614156120c9576040517f08c379a00000000000000000000000000000000000000000000000000000000081526004016120c0906130d8565b60405180910390fd5b600080600160009054906101000a900473ffffffffffffffffffffffffffffffffffffffff1673ffffffffffffffffffffffffffffffffffffffff166370a08231306040518263ffffffff1660e01b81526004016121279190612e18565b60206040518083038186803b15801561213f57600080fd5b505afa158015612153573d6000803e3d6000fd5b505050506040513d601f19601f820116820180604052508101906121779190612908565b10156121b8576040517f08c379a00000000000000000000000000000000000000000000000000000000081526004016121af90613118565b60405180910390fd5b600160009054906101000a900473ffffffffffffffffffffffffffffffffffffffff1673ffffffffffffffffffffffffffffffffffffffff1663a9059cbb84836040518363ffffffff1660e01b8152600401612215929190612f33565b602060405180830381600087803b15801561222f57600080fd5b505af1158015612243573d6000803e3d6000fd5b505050506040513d601f19601f820116820180604052508101906122679190612875565b6122a6576040517f08c379a000000000000000000000000000000000000000000000000000000000815260040161229d906130b8565b60405180910390fd5b600115158260000160149054906101000a900460ff16151514156122e557600a8260010160008282546122d991906132c9565b925050819055506122f0565b606482600101819055505b50505080806122fe906134e2565b915050611fa5565b5060005b81518110156123c457600082828151811061234e577f4e487b7100000000000000000000000000000000000000000000000000000000600052603260045260246000fd5b602002602001015190506000600260008373ffffffffffffffffffffffffffffffffffffffff1673ffffffffffffffffffffffffffffffffffffffff16815260200190815260200160002060006101000a81548160ff0219169083151502179055505080806123bc906134e2565b91505061230a565b5050565b600080826040516020016123dc9190612dea565b60405160208183030381529060405280519060200120905060005b848054905081101561249e57600085828154811061243e577f4e487b7100000000000000000000000000000000000000000000000000000000600052603260045260246000fd5b906000526020600020906007020160010160405160200161245f9190612e01565b6040516020818303038152906040528051906020012090508083141561248a578193505050506124a8565b508080612496906134e2565b9150506123f7565b5083805490509150505b92915050565b8280546124ba906134b0565b90600052602060002090601f0160209004810192826124dc5760008555612523565b82601f106124f557805160ff1916838001178555612523565b82800160010185558215612523579182015b82811115612522578251825591602001919060010190612507565b5b5090506125309190612534565b5090565b5b8082111561254d576000816000905550600101612535565b5090565b600061256461255f84613224565b6131f3565b90508281526020810184848401111561257c57600080fd5b61258784828561346e565b509392505050565b60008135905061259e816135f8565b92915050565b6000813590506125b38161360f565b92915050565b6000815190506125c88161360f565b92915050565b600082601f8301126125df57600080fd5b81356125ef848260208601612551565b91505092915050565b60008135905061260781613626565b92915050565b60008151905061261c81613626565b92915050565b60006020828403121561263457600080fd5b60006126428482850161258f565b91505092915050565b6000806040838503121561265e57600080fd5b600061266c8582860161258f565b925050602061267d8582860161258f565b9150509250929050565b6000806040838503121561269a57600080fd5b60006126a88582860161258f565b925050602083013567ffffffffffffffff8111156126c557600080fd5b6126d1858286016125ce565b9150509250929050565b6000806000606084860312156126f057600080fd5b60006126fe8682870161258f565b935050602084013567ffffffffffffffff81111561271b57600080fd5b612727868287016125ce565b925050604084013567ffffffffffffffff81111561274457600080fd5b612750868287016125ce565b9150509250925092565b60008060006060848603121561276f57600080fd5b600061277d8682870161258f565b935050602084013567ffffffffffffffff81111561279a57600080fd5b6127a6868287016125ce565b92505060406127b7868287016125f8565b9150509250925092565b600080604083850312156127d457600080fd5b60006127e28582860161258f565b92505060206127f3858286016125f8565b9150509250929050565b60008060006060848603121561281257600080fd5b60006128208682870161258f565b9350506020612831868287016125f8565b9250506040612842868287016125f8565b9150509250925092565b60006020828403121561285e57600080fd5b600061286c848285016125a4565b91505092915050565b60006020828403121561288757600080fd5b6000612895848285016125b9565b91505092915050565b6000602082840312156128b057600080fd5b600082013567ffffffffffffffff8111156128ca57600080fd5b6128d6848285016125ce565b91505092915050565b6000602082840312156128f157600080fd5b60006128ff848285016125f8565b91505092915050565b60006020828403121561291a57600080fd5b60006129288482850161260d565b91505092915050565b600061293d8383612949565b60208301905092915050565b612952816133de565b82525050565b612961816133de565b82525050565b600061297282613279565b61297c818561329c565b935061298783613254565b8060005b838110156129b857815161299f8882612931565b97506129aa8361328f565b92505060018101905061298b565b5085935050505092915050565b6129ce816133f0565b82525050565b6129dd81613426565b82525050565b6129ec8161344a565b82525050565b60006129fd82613284565b612a0781856132ad565b9350612a1781856020860161347d565b612a20816135e7565b840191505092915050565b6000612a3682613284565b612a4081856132be565b9350612a5081856020860161347d565b80840191505092915050565b60008154612a69816134b0565b612a7381866132be565b94506001821660008114612a8e5760018114612a9f57612ad2565b60ff19831686528186019350612ad2565b612aa885613264565b60005b83811015612aca57815481890152600182019150602081019050612aab565b838801955050505b50505092915050565b6000612ae8601d836132ad565b91507f436f6e74656e742063726561746f72206e6f74207369676e65642075700000006000830152602082019050919050565b6000612b286013836132ad565b91507f556e617574686f72697a656420616374696f6e000000000000000000000000006000830152602082019050919050565b6000612b686018836132ad565b91507f416c7265616479206c696b6564207468652072657669657700000000000000006000830152602082019050919050565b6000612ba86015836132ad565b91507f546f6b656e207472616e73666572206661696c656400000000000000000000006000830152602082019050919050565b6000612be8600e836132ad565b91507f55736572206e6f7420666f756e640000000000000000000000000000000000006000830152602082019050919050565b6000612c286012836132ad565b91507f55736572206e6f74207369676e656420757000000000000000000000000000006000830152602082019050919050565b6000612c686019836132ad565b91507f496e73756666696369656e7420746f6b656e20737570706c79000000000000006000830152602082019050919050565b6000612ca8601a836132ad565b91507f496e73756666696369656e7420746f6b656e2062616c616e63650000000000006000830152602082019050919050565b6000612ce86016836132ad565b91507f5573657220616c7265616479207369676e6564207570000000000000000000006000830152602082019050919050565b6000612d286016836132ad565b91507f5265766965776572206e6f74207369676e6564207570000000000000000000006000830152602082019050919050565b6000612d68601f836132ad565b91507f416c726561647920766f74656420666f72207265706c656e6973686d656e74006000830152602082019050919050565b6000612da8600f836132ad565b91507f4d6f766965206e6f7420666f756e6400000000000000000000000000000000006000830152602082019050919050565b612de48161341c565b82525050565b6000612df68284612a2b565b915081905092915050565b6000612e0d8284612a5c565b915081905092915050565b6000602082019050612e2d6000830184612958565b92915050565b6000606082019050612e486000830186612958565b612e556020830185612958565b612e626040830184612ddb565b949350505050565b600060a082019050612e7f6000830188612958565b612e8c60208301876129c5565b612e996040830186612ddb565b612ea66060830185612ddb565b612eb360808301846129c5565b9695505050505050565b600060e082019050612ed2600083018a612958565b8181036020830152612ee481896129f2565b9050612ef36040830188612ddb565b612f006060830187612ddb565b612f0d6080830186612ddb565b612f1a60a0830185612ddb565b612f2760c08301846129c5565b98975050505050505050565b6000604082019050612f486000830185612958565b612f556020830184612ddb565b9392505050565b60006020820190508181036000830152612f768184612967565b905092915050565b6000602082019050612f9360008301846129c5565b92915050565b6000602082019050612fae60008301846129d4565b92915050565b6000602082019050612fc960008301846129e3565b92915050565b60006020820190508181036000830152612fe981846129f2565b905092915050565b6000604082019050818103600083015261300b81856129f2565b9050818103602083015261301f81846129f2565b90509392505050565b6000604082019050818103600083015261304281856129f2565b90506130516020830184612ddb565b9392505050565b6000602082019050818103600083015261307181612adb565b9050919050565b6000602082019050818103600083015261309181612b1b565b9050919050565b600060208201905081810360008301526130b181612b5b565b9050919050565b600060208201905081810360008301526130d181612b9b565b9050919050565b600060208201905081810360008301526130f181612bdb565b9050919050565b6000602082019050818103600083015261311181612c1b565b9050919050565b6000602082019050818103600083015261313181612c5b565b9050919050565b6000602082019050818103600083015261315181612c9b565b9050919050565b6000602082019050818103600083015261317181612cdb565b9050919050565b6000602082019050818103600083015261319181612d1b565b9050919050565b600060208201905081810360008301526131b181612d5b565b9050919050565b600060208201905081810360008301526131d181612d9b565b9050919050565b60006020820190506131ed6000830184612ddb565b92915050565b6000604051905081810181811067ffffffffffffffff8211171561321a576132196135b8565b5b8060405250919050565b600067ffffffffffffffff82111561323f5761323e6135b8565b5b601f19601f8301169050602081019050919050565b6000819050602082019050919050565b60008190508160005260206000209050919050565b600081519050919050565b600081519050919050565b6000602082019050919050565b600082825260208201905092915050565b600082825260208201905092915050565b600081905092915050565b60006132d48261341c565b91506132df8361341c565b9250827fffffffffffffffffffffffffffffffffffffffffffffffffffffffffffffffff038211156133145761331361352b565b5b828201905092915050565b600061332a8261341c565b91506133358361341c565b9250826133455761334461355a565b5b828204905092915050565b600061335b8261341c565b91506133668361341c565b9250817fffffffffffffffffffffffffffffffffffffffffffffffffffffffffffffffff048311821515161561339f5761339e61352b565b5b828202905092915050565b60006133b58261341c565b91506133c08361341c565b9250828210156133d3576133d261352b565b5b828203905092915050565b60006133e9826133fc565b9050919050565b60008115159050919050565b600073ffffffffffffffffffffffffffffffffffffffff82169050919050565b6000819050919050565b600061343182613438565b9050919050565b6000613443826133fc565b9050919050565b60006134558261345c565b9050919050565b6000613467826133fc565b9050919050565b82818337600083830152505050565b60005b8381101561349b578082015181840152602081019050613480565b838111156134aa576000848401525b50505050565b600060028204905060018216806134c857607f821691505b602082108114156134dc576134db613589565b5b50919050565b60006134ed8261341c565b91507fffffffffffffffffffffffffffffffffffffffffffffffffffffffffffffffff8214156135205761351f61352b565b5b600182019050919050565b7f4e487b7100000000000000000000000000000000000000000000000000000000600052601160045260246000fd5b7f4e487b7100000000000000000000000000000000000000000000000000000000600052601260045260246000fd5b7f4e487b7100000000000000000000000000000000000000000000000000000000600052602260045260246000fd5b7f4e487b7100000000000000000000000000000000000000000000000000000000600052604160045260246000fd5b6000601f19601f8301169050919050565b613601816133de565b811461360c57600080fd5b50565b613618816133f0565b811461362357600080fd5b50565b61362f8161341c565b811461363a57600080fd5b5056fea26469706673582212205b444177b8fb3ff254bd315d64a713e2df6b568747bc1b0a8e91875b00deded464736f6c63430008000033",
  "immutableReferences": {},
  "source": "// SPDX-License-Identifier: MIT\r\npragma solidity ^0.8.0;\r\n\r\nimport \"./MovieRatingToken.sol\";\r\nimport \"./Certificate.sol\";\r\n\r\ncontract MovieRatingSystem {\r\n    struct User {\r\n        address userAddress;\r\n        bool isContentCreator;\r\n        uint256 tokenBalance;\r\n        uint256 rep;\r\n        bool validated;\r\n    }\r\n\r\n    struct Movie {\r\n        address contentCreator;\r\n        string movieName;\r\n        uint256 totalRating;\r\n        uint256 ratingCount;\r\n        uint256 avgRating;\r\n        uint256 validationCount;\r\n        bool isValid;\r\n    }\r\n\r\n    struct Rating {\r\n        address user;\r\n        uint256 rating;\r\n    }\r\n\r\n    mapping(address => User) public users;\r\n\r\n    MovieRatingToken public tokenContract;\r\n    mapping(address => bool) public votedForReplenishment;\r\n    mapping(address => Movie[]) public moviesAddedByUser;\r\n    mapping(address => Rating[][]) public moviesRatedByUser;\r\n    mapping(address => mapping(address => bool)) public likedReviews;\r\n    Certificate public certificateContract;\r\n    uint256 public userCount;\r\n    address[] public userAddresses;\r\n    event UserSignUp(address indexed userAddress, bool isContentCreator);\r\n    event MovieAdded(address indexed contentCreator, string movieName);\r\n    event MovieReviewed(\r\n        address indexed user,\r\n        address indexed contentCreator,\r\n        string movieName,\r\n        string review\r\n    );\r\n    event MovieRated(\r\n        address indexed user,\r\n        address indexed contentCreator,\r\n        string movieName,\r\n        uint256 rating\r\n    );\r\n    event ReviewLiked(address indexed reviewer, address indexed contentCreator);\r\n    event MovieValidated(address indexed contentCreator, string movieName);\r\n    event CertificateUploaded(address indexed owner, string certificateHash);\r\n    uint256 public replenishmentVotes;\r\n\r\n    constructor(address _tokenContract, address _certificateContract) {\r\n        tokenContract = MovieRatingToken(_tokenContract);\r\n        certificateContract = Certificate(_certificateContract);\r\n        userCount = 0;\r\n    }\r\n\r\n    function signUp(bool _isContentCreator) external {\r\n        require(\r\n            users[msg.sender].userAddress == address(0),\r\n            \"User already signed up\"\r\n        );\r\n\r\n        uint256 tokenCost = 0; // Cost of signup, assuming 1 token\r\n\r\n        require(\r\n            tokenContract.balanceOf(msg.sender) >= tokenCost,\r\n            \"Insufficient token balance\"\r\n        );\r\n\r\n        require(\r\n            tokenContract.transferFrom(msg.sender, address(this), tokenCost),\r\n            \"Token transfer failed\"\r\n        );\r\n\r\n        users[msg.sender] = User(msg.sender, _isContentCreator, 100, 0, false);\r\n        userCount++;\r\n        userAddresses.push(msg.sender);\r\n        emit UserSignUp(msg.sender, _isContentCreator);\r\n    }\r\n\r\n    function replenishTokens() internal {\r\n        address[] memory userAddresses = getAllUserAddresses();\r\n\r\n        for (uint256 i = 0; i < userAddresses.length; i++) {\r\n            address userAddress = userAddresses[i];\r\n            User storage user = users[userAddress];\r\n\r\n            require(user.userAddress != address(0), \"User not found\");\r\n\r\n            uint256 tokenCost = 0; // Cost of token replenishment, assuming 100 tokens\r\n\r\n            require(\r\n                tokenContract.balanceOf(address(this)) >= tokenCost,\r\n                \"Insufficient token supply\"\r\n            );\r\n\r\n            require(\r\n                tokenContract.transfer(userAddress, tokenCost),\r\n                \"Token transfer failed\"\r\n            );\r\n            if (user.isContentCreator == true) {\r\n                user.tokenBalance += 10;\r\n            } else {\r\n                user.tokenBalance = 100;\r\n            }\r\n        }\r\n        for (uint256 i = 0; i < userAddresses.length; i++) {\r\n            address userAddress = userAddresses[i];\r\n            votedForReplenishment[userAddress] = false;\r\n        }\r\n    }\r\n\r\n    function checkValidation(\r\n        address _contentCreator\r\n    ) public view returns (bool) {\r\n        User storage contentCreator = users[_contentCreator];\r\n        require(\r\n            contentCreator.userAddress != address(0),\r\n            \"Content creator not signed up\"\r\n        );\r\n\r\n        return contentCreator.rep > 1500;\r\n    }\r\n\r\n    function voteForReplenishment() external {\r\n        User storage user = users[msg.sender];\r\n        require(user.userAddress != address(0), \"User not signed up\");\r\n        require(\r\n            !votedForReplenishment[msg.sender],\r\n            \"Already voted for replenishment\"\r\n        );\r\n\r\n        votedForReplenishment[msg.sender] = true;\r\n        replenishmentVotes++;\r\n\r\n        // Check if the threshold of 60% votes is reached\r\n        if (replenishmentVotes >= (userCount * 60) / 100) {\r\n            // Replenish tokens\r\n            replenishTokens();\r\n        }\r\n    }\r\n\r\n    function getAddressAtIndex(\r\n        mapping(address => User) storage _mapping,\r\n        uint256 _index\r\n    ) internal view returns (address) {\r\n        address[] memory keys = new address[](userCount);\r\n        uint256 counter = 0;\r\n        for (uint256 i = 0; i < userCount; i++) {\r\n            address userAddress = getAddressAtIndex(_mapping, i);\r\n            if (_mapping[userAddress].userAddress != address(0)) {\r\n                if (counter == _index) {\r\n                    return userAddress;\r\n                }\r\n                counter++;\r\n            }\r\n        }\r\n        revert(\"Index out of bounds\");\r\n    }\r\n\r\n    function validateMovie(\r\n        address _contentCreator,\r\n        string memory _movieName\r\n    ) external {\r\n        User storage contentCreator = users[_contentCreator];\r\n        require(\r\n            contentCreator.userAddress != address(0),\r\n            \"Content creator not signed up\"\r\n        );\r\n        require(contentCreator.isContentCreator, \"Unauthorized action\");\r\n\r\n        Movie[] storage movies = moviesAddedByUser[_contentCreator];\r\n        uint256 movieIndex = getMovieIndex(movies, _movieName);\r\n        require(movieIndex < movies.length, \"Movie not found\");\r\n\r\n        Movie storage movie = movies[movieIndex];\r\n        movie.validationCount++;\r\n\r\n        if (!movie.isValid && movie.validationCount >= (userCount * 40) / 100) {\r\n            movie.isValid = true;\r\n            contentCreator.rep += 200; // Increase content creator's reputation by 200 for a valid movie\r\n            contentCreator.tokenBalance += 50; // Reward content creator with 50 tokens for a valid movie\r\n        }\r\n\r\n        emit MovieValidated(_contentCreator, _movieName);\r\n    }\r\n\r\n    function getAllUserAddresses() public view returns (address[] memory) {\r\n        return userAddresses;\r\n    }\r\n\r\n    function addMovie(string memory _movieName) external {\r\n        User storage contentCreator = users[msg.sender];\r\n        require(\r\n            contentCreator.userAddress != address(0),\r\n            \"Content creator not signed up\"\r\n        );\r\n        require(contentCreator.isContentCreator, \"Unauthorized action\");\r\n\r\n        uint256 tokenCost = 1; // Cost of adding a movie, assuming 1 token\r\n\r\n        require(\r\n            contentCreator.tokenBalance >= tokenCost,\r\n            \"Insufficient token balance\"\r\n        );\r\n\r\n        // Perform the action of adding a movie\r\n        moviesAddedByUser[msg.sender].push(\r\n            Movie(msg.sender, _movieName, 0, 0, 0, 0, false)\r\n        );\r\n\r\n        emit MovieAdded(msg.sender, _movieName);\r\n\r\n        contentCreator.tokenBalance -= tokenCost;\r\n    }\r\n\r\n    function reviewMovie(\r\n        address _contentCreator,\r\n        string memory _movieName,\r\n        string memory _review\r\n    ) external {\r\n        User storage user = users[msg.sender];\r\n        require(user.userAddress != address(0), \"User not signed up\");\r\n\r\n        uint256 tokenCost = 1; // Cost of reviewing a movie, assuming 1 token\r\n\r\n        require(user.tokenBalance >= tokenCost, \"Insufficient token balance\");\r\n\r\n        // Perform the action of reviewing a movie\r\n        emit MovieReviewed(msg.sender, _contentCreator, _movieName, _review);\r\n\r\n        user.tokenBalance -= tokenCost;\r\n    }\r\n\r\n    function rateMovie(\r\n        address _contentCreator,\r\n        string memory _movieName,\r\n        uint256 _rating\r\n    ) external {\r\n        User storage user = users[msg.sender];\r\n        require(user.userAddress != address(0), \"User not signed up\");\r\n\r\n        uint256 tokenCost = 1; // Cost of rating a movie, assuming 1 token\r\n\r\n        require(user.tokenBalance >= tokenCost, \"Insufficient token balance\");\r\n\r\n        // Perform the action of rating a movie\r\n        emit MovieRated(msg.sender, _contentCreator, _movieName, _rating);\r\n\r\n        Movie[] storage movies = moviesAddedByUser[_contentCreator];\r\n        uint256 movieIndex = getMovieIndex(movies, _movieName);\r\n\r\n        require(movieIndex < movies.length, \"Movie not found\");\r\n\r\n        Movie storage movie = movies[movieIndex];\r\n\r\n        // Update the total rating and rating count of the movie\r\n        movie.totalRating += _rating;\r\n        movie.ratingCount += 1;\r\n        movie.avgRating = movie.totalRating / movie.ratingCount;\r\n\r\n        user.tokenBalance -= tokenCost;\r\n    }\r\n\r\n    function likeReview(address _contentCreator, address _reviewer) external {\r\n        User storage contentCreator = users[_contentCreator];\r\n        require(\r\n            contentCreator.userAddress != address(0),\r\n            \"Content creator not signed up\"\r\n        );\r\n        require(contentCreator.isContentCreator, \"Unauthorized action\");\r\n\r\n        User storage reviewer = users[_reviewer];\r\n        require(reviewer.userAddress != address(0), \"Reviewer not signed up\");\r\n\r\n        require(\r\n            !likedReviews[_contentCreator][_reviewer],\r\n            \"Already liked the review\"\r\n        );\r\n\r\n        contentCreator.rep += 50;\r\n        likedReviews[_contentCreator][_reviewer] = true;\r\n\r\n        // Increase reviewer's token balance by 2\r\n        reviewer.tokenBalance += 2;\r\n\r\n        emit ReviewLiked(_reviewer, _contentCreator);\r\n    }\r\n\r\n    function getMovieIndex(\r\n        Movie[] storage _movies,\r\n        string memory _movieName\r\n    ) internal view returns (uint256) {\r\n        bytes32 movieHash = keccak256(abi.encodePacked(_movieName));\r\n        for (uint256 i = 0; i < _movies.length; i++) {\r\n            bytes32 existingMovieHash = keccak256(\r\n                abi.encodePacked(_movies[i].movieName)\r\n            );\r\n            if (movieHash == existingMovieHash) {\r\n                return i;\r\n            }\r\n        }\r\n        return _movies.length;\r\n    }\r\n\r\n    function uploadCertificate(string memory _certificateHash) external {\r\n        certificateContract.uploadCertificate(_certificateHash);\r\n\r\n        User storage contentCreator = users[msg.sender];\r\n        require(\r\n            contentCreator.userAddress != address(0),\r\n            \"Content creator not signed up\"\r\n        );\r\n\r\n        contentCreator.rep += 50; // Increase content creator's reputation by 50 for uploading a certificate\r\n\r\n        emit CertificateUploaded(msg.sender, _certificateHash);\r\n    }\r\n}",
  "sourcePath": "c:\\Users\\berke\\OneDrive\\Masast\\bmcs\\contracts\\MovieRatingSystem.sol",
  "compiler": {
    "name": "solc",
    "version": "0.8.0+commit.c7dfd78e.Emscripten.clang"
  },
  "schemaVersion": "3.4.14",
  "updatedAt": "2023-06-08T21:07:48.430Z",
  "networkType": "ethereum",
  "devdoc": {
    "kind": "dev",
    "methods": {},
    "version": 1
  },
  "userdoc": {
    "kind": "user",
    "methods": {},
    "version": 1
  }
}